:020000040800F2
:10000000D00C0020290200081D260008C922000883
:10001000792400081F040008812C0008000000005B
:100020000000000000000000000000002126000881
:1000300001080008000000001F260008C127000872
:10004000430200084302000843020008430200087C
:10005000430200084302000843020008430200086C
:10006000430200084302000843020008430200085C
:100070004507000843020008510700084302000832
:10008000430200084302000843020008430200083C
:10009000210400082D040008430200084302000860
:1000A000430200084302000843020008430200081C
:1000B000430200084302000843020008430200080C
:1000C00043020008430200084302000843020008FC
:1000D000430200084302000843020008752C000890
:1000E00043020008430200084302000843020008DC
:1000F00043020008430200084302000843020008CC
:1001000043020008430200084302000843020008BB
:1001100043020008430200084302000843020008AB
:10012000430200084302000843020008430200089B
:10013000430200084302000843020008430200088B
:10014000390400084504000843020008430200087F
:10015000430200084302000843020008430200086B
:10016000430200084302000843020008430200085B
:100170004302000843020008430200080000000098
:10018000430200084302000800F002F800F03CF8C7
:100190000AA090E8000C82448344AAF10107DA45E2
:1001A00001D100F031F8AFF2090EBAE80F0013F0F8
:1001B000010F18BFFB1A43F0010318479C330000DE
:1001C000BC330000103A24BF78C878C1FAD852076F
:1001D00024BF30C830C144BF04680C6070470000C1
:1001E0000023002400250026103A28BF78C1FBD840
:1001F000520728BF30C148BF0B6070471FB503F0DE
:1002000091F91FBD10B510BD00F0CFF81146FFF7F2
:10021000F5FF02F09BFD00F0EDF803B4FFF7F2FFED
:1002200003BC00F0F5F80000094880470948004782
:10023000FEE7FEE7FEE7FEE7FEE7FEE7FEE7FEE796
:10024000FEE7FEE704480549054A064B70470000F3
:100250005928000889010008D0060020D00C002091
:10026000D0080020D008002053EA020C00F069807A
:100270002DE9F04B4FF00006002B1FBFB3FA83F5BA
:1002800003FA05F424FA05F65E4012BF1643B2FAEB
:1002900082F502FA05F4C5F120051EBF22FA05FC1D
:1002A00044EA0C04203556EA044C4FEA144418BFC3
:1002B000641C4FF000084FF00009904271EB030CF2
:1002C00039D3002919BFB1FA81F701FA07F6B0FA5C
:1002D00080F700FA07F6C7F120071EBF20FA07FCD7
:1002E00046EA0C062037B6FBF4FCA7EB0507103FE7
:1002F00007F01F0BCBF120060CFA0BFB2CFA06F6CD
:1003000044BFB3460026202FA4BF5E464FF0000B2B
:100310005BEA060C08BF4FF0010B19EB0B09ABFBB6
:10032000027C48EB0608C01B06FB02CC0BFB03CC8F
:1003300071EB0C01C1E70B46024641464846BDE859
:10034000F08B13B54FF000004FF00001AFF30080C9
:10035000BDE81C4070474FF0000200B513469446BC
:100360009646203922BFA0E80C50A0E80C50B1F10D
:100370002001BFF4F7AF090728BFA0E80C5048BF21
:100380000CC05DF804EB890028BF40F8042B08BFBF
:10039000704748BF20F8022B11F0804F18BF00F8BB
:1003A000012B7047704770477047754600F02CF876
:1003B000AE4605006946534620F00700854618B052
:1003C00020B5FFF73FFFBDE820404FF000064FF09B
:1003D00000074FF000084FF0000B21F00701AC467A
:1003E000ACE8C009ACE8C009ACE8C009ACE8C00999
:1003F0008D46704710B50446AFF300802046BDE837
:100400001040FFF70ABF0000004870476C0600204C
:1004100001491820ABBEFEE7260002007047FEE748
:10042000014800F082BB0000C0040020014800F039
:100430007CBB0000C0040020014800F076BB000037
:10044000E8040020014800F070BB0000E804002030
:1004500000B58BB028216846FFF77DFF0020012101
:10046000CDE906010891009001900290039005905B
:1004700004906946054800F05DFA044800F0B8FDB4
:100480000221024800F0D6F90BB000BDC0040020E4
:1004900000B589B000220692030A8DF818308DF855
:1004A0001900080A8DF81A0040F2FF100090079218
:1004B00008208DF81B10039202920490012306AAD3
:1004C0006946024800F0C8F909B000BDC004002028
:1004D00000B58BB028216846FFF73DFF00200121C1
:1004E000CDE90601089100900190029003900590DB
:1004F00004906946054800F01DFA044800F078FDB4
:100500000221024800F096F90BB000BDE80400207B
:1005100030B589B000244FF400750094CDE9014551
:100520000594049408240694040A8DF800408DF87C
:100530000100080A8DF80200100A8DF804008DF8F9
:100540000520180A8DF806008DF803108DF8073085
:1005500001236A4602A9024800F07EF909B030BDC5
:10056000E804002070B56E4D6E4C2DED028BB5F990
:10057000060000EE100AB8EEC08A84EDB88AB5F91C
:10058000020000EE100AF8EEC08AC4EDB98AB5F98F
:100590000C0002F09EFE9FED641B53EC112B02F049
:1005A000C3FE02F0DFFC00EE100A84EDBA0ADFEDB4
:1005B000600A80EE201AB0EE000A61EE000A9FED9C
:1005C0005D0A78EEC81A60EE800A9FED5B0AB0EE15
:1005D000611A00EE801A9FED592AC1EE022ABDEE83
:1005E000E21A11EE100A38EE281A2082B0EE413AD3
:1005F00000EEC03ADFED522A40EEC01A00EE801A3B
:10060000C3EE223A81EE020ABDEEE33A13EE101A6F
:10061000A4F8C81081EEA23ABDEEC00AFDEEC31ADE
:1006200011EE901AA4F8801110EE101AA4F83812E6
:10063000B4F9121000EE101A40F27441F8EEC00A3C
:1006400010FB01F000EE100A04F11800B8EEC00A29
:1006500002F0AAFBB4F9CA0040F2744100EE100A9D
:10066000B4F8C800F8EEC00A10FB01F000EE100A62
:1006700004F1D000B8EEC00A02F096FBB4F9820192
:1006800040F2744100EE100AB4F88001F8EEC00A9E
:1006900010FB01F000EE100A04F5C470B8EEC00AB9
:1006A00002F082FBB4F93A0240F2744100EE100A03
:1006B000B4F83802F8EEC00A10FB01F000EE100AA0
:1006C00004F51070B8EEC00A02F06EFB287A08B389
:1006D00094ED960ABDEEC00A10EE100A94ED680A79
:1006E00003B2BDEEC00A10EE100A94ED3A0A02B24F
:1006F000BDEEC00A10EE100A94ED0C0A01B2BDEE78
:10070000C00A10EE100A00B2BDEC028BBDE87040CA
:10071000FFF7FEBE00231A4619461846F4E700000C
:1007200052000020D40100209A9999999999C93FC3
:100730000000B443F90F494000009643F8C2EEC3ED
:10074000F8C2EE43014800F0E1BC0000AC05002017
:10075000014800F0DBBC00000C06002001681823F3
:10076000CAB2103AB2FBF3F2054B6FF30901032A48
:100770009B5CC36500D9091D816508467047000070
:100780003835000810B5014600208B698A6A4FF0A1
:10079000C07453B1B3F5005F15D072B1012A0CD00B
:1007A000022A0AD0032A09D104E01AB1012A06D08C
:1007B000022A03D1C96AC90100D5012010BDC96A46
:1007C000A142FAD010BD002AF7D0012AF2D0022AA5
:1007D000F3D0032AF3D010BD30B50468256825F4A2
:1007E00080252560046863608368402B036803D01C
:1007F00099600068C26030BD9A600068C16030BD19
:10080000704772B6FEE7000010B5084C607A18B960
:1008100000210846FFF73CFE607A012804D1BDE8BC
:100820001040034801F02ABE10BD00005200002015
:100830006400002090F82020012A07D0022A05D069
:10084000416A41F480214162012070470068426999
:100850000A43426100207047F0B590F820500468C8
:10086000A468012D05D0022D03D0416A41F48021F6
:100870005DE014F0406F01D1E50055D5C4F301648B
:10088000022C03D9416A41F4000150E00125A54042
:100890001D608D684FF4C0739DB1CE6835434E68BE
:1008A00045EAC605066803EB0417F5514FF4C27517
:1008B000076805EB04150E697E51097D012905D0F5
:1008C00009E00E88CD6845EA4655EBE701684E59C8
:1008D00046F480764E511179D579567941EA056111
:1008E00095792D0445EA062529434FF4C676056817
:1008F00006EB0416A9511178D57841EA056195787F
:1009000052782D0445EA022211434FF4C47502685F
:1009100005EB04155151006803EB0411425842F0F5
:10092000010242500020F0BD416A41F400114162D1
:100930000120F0BD10B590F82020012A07D0022A2E
:1009400005D0416A41F480214162012010BD3B483D
:10095000D0F8002242F00102C0F80022D0F80022B4
:1009600022F47C52C0F80022D0F800224B6A42EAFE
:100970000322C0F800220A7D02F01F0301229A40E0
:10098000D0F81C329343C0F81C32CB69B3B9D0F80D
:100990000C329343C0F80C328C894B6864F31F43CC
:1009A0004C6900EBC404C4F840320C890B6864F352
:1009B0001F434C6900EBC404C4F84432CB69012BDB
:1009C00016D1D0F80C321343C0F80C320C884B68A7
:1009D00064F31F434C6900EBC404C4F840320C8933
:1009E000CB6864F31F434C6900EBC404C4F8443281
:1009F0008B69002BD0F804320ED01343C0F80432B8
:100A00000B69002BD0F8143208D01343C0F814320D
:100A1000096A012904D008E09343EFE79343F5E71F
:100A2000D0F81C121143C0F81C12D0F8001221F0AB
:100A30000101C0F80012002010BD00000064004059
:100A4000704730B590F82040012C05D0022C03D01F
:100A5000416A41F480215DE00468002955D0246991
:100A6000A40754D04FF4D874056804EB01142D5931
:100A700015F00405956005682D594ED0ED085560B8
:100A800005682C5904F00204D4604FF4DA74056848
:100A900004EB01142D5905F00F05156105682D595A
:100AA000C5F30725956105682C59240C54614FF452
:100AB000DC72046802EB0112A4581C700468A4588C
:100AC000240A5C700468A458240C9C700468A25822
:100AD000120EDA704FF4DE72046802EB0112A458B1
:100AE0001C710468A458240A5C710468A458240C7E
:100AF0009C710468A258120EDA71006881B1016914
:100B000041F020010161002030BDE468A8E7416A9E
:100B100041F400114162012030BD6D0D1560AFE759
:100B2000C16841F02001C160EDE72DE9F05F0546A5
:100B3000006800244669D0F804908768D0F80CB0AB
:100B4000D0F810A0D0F81880F10748D0F90714D0D9
:100B500001218160B80703D5284600F076FA0CE041
:100B6000780702D54FF4006407E0380702D54FF448
:100B7000805402E0284600F067FAF80516D5296887
:100B80004FF480708860B80503D5284600F05FFAFE
:100B90000CE0780502D544F4005407E0380502D58E
:100BA00044F4804402E0284600F050FAF80316D5D9
:100BB00029684FF480308860B80303D5284600F0D8
:100BC00048FA0CE0780302D544F4004407E0380307
:100BD00002D544F4803402E0284600F039FA3007A8
:100BE00007D55FEACB6004D52968102044F400746F
:100BF000C86070074FF0080707D55FEA0B7004D58F
:100C00002868C760284600F0A9F9B00706D528680B
:100C1000C068800702D0284600F0A2F9700607D508
:100C20005FEACA6004D52968102044F48064086132
:100C3000B00607D55FEA0A7004D528680761284620
:100C400000F0D2F9F00606D528680069800702D0C6
:100C5000284600F0CAF9B00308D55FEAC96005D597
:100C6000296810204860284600F0C0F9F00307D535
:100C70005FEA097004D528684760284600F0EAF961
:100C8000300446D55FEA497040D5F00504D55FEAE7
:100C9000C87001D044F00104B00504D55FEA887043
:100CA00001D544F00204700504D55FEA487001D50F
:100CB00044F00404300529D518F0700F26D008F050
:100CC0007000402815D006DC102809D020280AD052
:100CD000302816D10AE050280ED0602811D10EE03D
:100CE00044F008040DE044F010040AE044F020044D
:100CF00007E044F0400404E044F0800401E044F4E0
:100D000080742868816921F070018161296804205C
:100D10004860002C05D0686A204368622846FFF7C7
:100D20008FFEBDE8F09F70B5040003D094F820005A
:100D300010B104E0012070BD204600F081F8206869
:100D4000016841F00101016000F05CFC05460526E8
:100D500004E000F057FC401B0A2811D820684068C6
:100D6000C007F6D02068016821F00201016000F0A0
:100D700049FC05460BE000F045FC401B0A2806D95B
:100D8000606A40F40030606284F82060D2E7206836
:100D900040688007EFD4207E0128206801683DD09C
:100DA00021F080010160607E01282068016838D050
:100DB00021F040010160A07E01282068016833D045
:100DC00021F020010160E07E0128206801682ED01A
:100DD00041F010010160207F01282068016829D0BE
:100DE00021F008010160607F01282068016824D09B
:100DF00021F004010160D4E902010843D4E904129E
:100E0000114308436168491E08432168C8610020F6
:100E10006062012084F82000002070BD41F0800154
:100E2000C0E741F04001C5E741F02001CAE721F0E9
:100E30001001CFE741F00801D4E741F00401D9E700
:100E4000F0B587B0044614216846FFF784FA3E4B9C
:100E50003E48DFF8F0E01968D4F800C03B4A0325AB
:100E60000226092710300024491CF4452AD11960B4
:100E7000012907D1016841F000710160006800F0AC
:100E800000700590106840F0080010601068CDE90F
:100E9000005600F00800CDE9047069462C48CDE901
:100EA000024500F0B7FA00220521142000F018FCDA
:100EB000142000F007FC00220521152000F010FC92
:100EC00015203AE0DFF88CE0F44538D1D0F800C0C6
:100ED0004CF0806CC0F800C0D0F800C001290CF0C4
:100EE000806CCDF814C0196007D1016841F0007121
:100EF0000160006800F000700590106840F002008A
:100F00001060106802AB00F0020005906020CDE98F
:100F1000000683E8B00069460F4800F07BFA002223
:100F20000521402000F0DCFB402000F0CBFB00223C
:100F30000521412000F0D4FB412000F0C3FB07B0A5
:100F4000F0BD000000640040000000203038024086
:100F5000000C02400068004000040240704700009E
:100F600010B58AB004466B4602AA0021FFF769FD5E
:100F7000184884420FD10298A0F50070053802D0BD
:100F8000012808D102E06946134802E01248694688
:100F9000B83001F0CFFA1148844215D10298A0F57B
:100FA0000070013808D0012809D002280ED003288B
:100FB0000AD169460A4805E069460A4802E009483C
:100FC0006946B83001F0B6FA0AB010BD0448694667
:100FD000B838F7E7C004002064000020E8040020CF
:100FE000FC030020D40100207047704770470000C8
:100FF00070B5044690F82000012804D0606A40F4DF
:101000000020606218E0022084F820002068016857
:1010100021F00101016000F0F5FA05460EE000BF85
:1010200000F0F0FA401B0A2808D9606A40F400304A
:101030006062052084F82000012070BD20684068AF
:10104000C007EDD1606270BD704770477047704750
:101050007047704770472DE9F0410446876D00F0F6
:10106000D1FA064694F835000025022806D08020E3
:10107000606584F834500120BDE8F0812068016883
:1010800021F0160101602068416921F08001416171
:10109000206C08B9A06C20B12068016821F008011B
:1010A00001602068016821F0010101600CE000F09E
:1010B000A9FA801B052807D920206065032084F841
:1010C000350084F83450D7E720680068C007EED1B7
:1010D00094F85C103F208840B860012084F8350007
:1010E00084F834500020C7E790F83510022903D067
:1010F0008021416501207047052180F83510006886
:10110000016821F001010160002070472DE9F843DA
:1011100004464FF00009CDF8009063484FF4165193
:10112000A56D0068B0FBF1F72E6894F85C100820FC
:1011300000FA01F131420FD021680A6852070BD53D
:101140000A6822F004020A6094F85C108840A860E3
:10115000606D40F00100606594F85C104FF001088C
:1011600008FA01F0304208D021684969090604D51F
:10117000A860606D40F00200606594F85C10042087
:101180008840304208D021680968890704D5A860E2
:10119000606D40F00400606594F85C101020884099
:1011A000304218D021680968090714D5A860206862
:1011B0000168490304D50068000308D5A16C07E065
:1011C0000168C90503D4016821F008010160216CA0
:1011D00009B12046884794F85C10202088403042AE
:1011E00031D021680968C9062DD5A86094F835006A
:1011F00005282068016806D0490347D50068000328
:101200001DD4616C1CE021F0160101602068416969
:1012100021F080014161206C08B9A06C20B12068E8
:10122000016821F00801016094F85C103F208840BB
:10123000A86084F8358084F83490216D1FE0E16B5C
:1012400009B120468847606D00282BD0606DC0072B
:1012500014D0052084F835002068016821F00101D0
:1012600001600098401C0090B84203D820680068D4
:10127000C007F6D184F8358084F83490E16C0029F9
:1012800010D001B02046BDE8F04308470168C90509
:10129000D5D4016821F01001016084F8358084F80C
:1012A0003490CCE7BDE8F883100000202DE9F04130
:1012B000044600F0A7F906465CB1022084F8350028
:1012C000002584F834502068016821F00101016094
:1012D0000DE00120BDE8F08100F094F9801B0528A5
:1012E00005D920206065032084F83500F2E72068E6
:1012F0000068C007F0D12268116820480140D4E995
:1013000001031843D4E90336334318436369184390
:10131000A3691843E3691843236A18430843616AC1
:10132000042903D1D4E90B13194308431060206842
:101330004069666A20F0070130460E430127042801
:101340000CD1A06A0643E06A40B12046FFF71AFAC2
:1013500020B14020606584F83570BAE720684661A6
:101360002046FFF7FBF994F85C203F219140816013
:10137000656584F835700020ACE700003F8010F010
:101380002DE9F0410446866D90F8340000250128CF
:101390000DD0012084F8340094F835700020012F1E
:1013A00007D084F8340002252846BDE8F0810220E9
:1013B000FBE7022784F8357060652046FFF70CFADA
:1013C00094F85C103F208840B0602068016841F0CC
:1013D00016010160206C20B12068016841F008010D
:1013E00001602068016841F001010160DCE7000054
:1013F00070B5044600F006F90546601C02D00448AA
:101400000078044400F0FEF8401BA042FAD370BDFF
:10141000040000202DE9F84FDFF8BCA100220125CF
:1014200003264FF00F090AF1040BAAF1040E00BFC6
:101430000B6805FA02F42340A34270D10F7907F03C
:101440000307012F01D0022F16D187684FEA420807
:1014500006FA08FC27EA0C07D1F80CC00CFA08FCC5
:101460004CEA070CC0F808C04768A7430C79C4F3DE
:10147000001494403C4344600C79E443A4070AD030
:10148000C4684FEA420C06FA0CF7BC438F6807FAAF
:101490000CF72743C7600C7904F00304022C12D127
:1014A000D40800EB840CDCF820405707FF0E09FA43
:1014B00007F824EA0804D1F8108008FA07F848EA87
:1014C0000408CCF8208004684FEA420C06FA0CF7B6
:1014D000BC430F7907F0030707FA0CF727430760AF
:1014E0004C6814F4403F70D03C4C276847F4804768
:1014F0002760246822F0030704F480440094384CE9
:1015000007EB040CDCF8084897074FEA177809FA4C
:1015100008F7BC43334FB84202D1002724E054E01F
:10152000314FB84201D101271EE0304FB84201D1FE
:10153000022719E02E4FB84201D1032714E02D4FA6
:10154000B84201D104270FE02B4FB84201D1052743
:101550000AE02A4FB84201D1062705E0284FB842D9
:1015600001D1072700E0082707FA08F72743CCF83E
:101570000878DAF800405746D1F804C09C435FEA87
:10158000CC2C00D51C433C60DBF800405F46D1F812
:1015900004C09C435FEA8C2C00D51C433C60DEF801
:1015A00000407746D1F804C09C435FEA8C3C00D5EC
:1015B0001C433C60084F083F3C68D1F804C09C4382
:1015C0005FEACC3C00D51C433C60521C102AFFF45F
:1015D0002FAFBDE8F88F0000083C014044380240BE
:1015E00000300140000002400004024000080240B8
:1015F000000C02400010024000140240001802409B
:10160000001C024001488068704700000400002070
:10161000024881680278114481607047040000200C
:101620000B4810B5016841F400710160016841F494
:1016300080610160016841F480710160032000F065
:101640006FF80F2000F006F800F024F8002010BD1D
:10165000003C024070B50D4D04464FF47A71287875
:10166000B1FBF0F00A490968B1FBF0F000F0B2FB01
:1016700048B9102C07D200222146501E00F030F845
:1016800000206C6070BD012070BD000004000020CF
:10169000100000200A4808B5016841F4804101604B
:1016A000006800F4804000900548001F016841F088
:1016B00080510160006800F08050009008BD00007B
:1016C00044380240002809DB00F01F02012191404C
:1016D0004009800000F1E020C0F8001170470000D0
:1016E000F0B40E4B1B680C46C3F30223C3F107058D
:1016F000042D00D90425191D072901D2002300E07B
:10170000DB1E012606FA05F1491E214099409E4044
:10171000761E16403143F0BC01F0B3BA0CED00E088
:10172000064900F0070208684FF6FF03184040EA38
:101730000220034A10430860704700000CED00E0EF
:101740000000FA052DE9F0470E46050065D0DFF8E8
:101750001481D8F80000F7B200F00700B04207D2B9
:1017600088F80070D8F8000000F00700B04254D1AB
:1017700028683D4C810712D5400703D5206840F406
:10178000E05020602878000703D5206840F46040CE
:1017900020602068A96820F0F000084320602878C5
:1017A000C0072DD0304968680839012812D00228B6
:1017B00013D0032811D00968890700292DDA216880
:1017C00021F0030101432160FFF71CFF814641F234
:1017D000883A0EE009688903EFE709688901ECE7B8
:1017E000FFF710FFA0EB0901514502D90320BDE826
:1017F000F0872068696800F00C00B0EB810FEFD132
:10180000D8F80010404601F00701B14207D907702F
:10181000006800F00700B04201D00120E7E7287817
:10182000400705D52068E96820F4E05008432060AF
:101830002878000706D52068296920F4604040EA2E
:10184000C100206000F038F82168084AC1F3031194
:10185000515CC8400649086006480068FFF7FAFE78
:101860000020C4E7003C0240083802404035000830
:10187000100000200800002004480549006809689D
:10188000044AC1F38221515CC84070471000002017
:1018900008380240503500080448054900680968C6
:1018A000044AC1F34231515CC84070471000002027
:1018B0000838024050350008154810B5006810F08F
:1018C0000C02144813D01449042A0FD0082A0ED150
:1018D0000F4C241F2268236802F03F025B0207D5E9
:1018E0002068C0F38810A0FB010106E0084610BD87
:1018F0002168C1F38811A1FB00010023FEF7B4FCAD
:101900002168C1F30141491C4900B0FBF1F010BD51
:10191000083802400024F400001BB7002DE9F84FFE
:1019200004006ED02078DFF84C93C007A9F10405BD
:101930004AD009F104000168C1F38101012908D0EE
:101940000068C0F3810002280AD1D9F800004002E3
:1019500006D52868800337D560680028E1D033E0D9
:101960006068B0F5803F10D0B0F5A02F286810D087
:1019700020F480302860286820F480202860606887
:10198000A8B1FFF73FFE06460DE0286840F480301E
:10199000F4E740F480202860F7E700BFFFF732FE4D
:1019A000801B642873D828688003F7D50CE0FFF704
:1019B00029FE064605E000BFFFF724FE801B6428D1
:1019C000F0D828688003F7D42078DFF8AC8280074D
:1019D0004FF0000A3ED5A748001D016811F00C0F1A
:1019E00008D00068C0F3810002280BD1D9F80000AC
:1019F000400207D42868800716D5E068012800D186
:101A000012E033E1E068B8B10120C8F80000FFF748
:101A1000F9FD064605E000BFFFF7F4FD801B022834
:101A2000C0D828688007F7D52868216920F0F80019
:101A300040EAC10028600DE0C8F800A0FFF7E2FD11
:101A4000064604E0FFF7DEFD801B02281FD8286849
:101A50008007F7D42078000722D5864F8748616930
:101A6000703771B101210160FFF7CCFD064604E03B
:101A7000FFF7C8FD801B022809D838688007F7D512
:101A80000EE0C0F800A0FFF7BDFD064605E082E0CD
:101A9000FFF7B8FD801B02287DD838688007F7D48F
:101AA0002078400768D5DFF8CCB100270BF13C0B5C
:101AB000DBF80000C0000BD4DBF8001041F08051CF
:101AC000CBF80010DBF80000012700F080500090F8
:101AD0006B4E3068C00510D4306840F480703060C0
:101AE000FFF790FD009005E0FFF78CFD0099401A8C
:101AF000022850D83068C005F6D55E4EA0686C3616
:101B000001280FD00528306810D020F00100306087
:101B1000306820F004003060A068B8B1FFF772FDB3
:101B200000900FE0306840F00100F4E740F004005E
:101B30003060F7E7FFF766FD0099411A41F28830FF
:101B4000814266D830688007F4D50EE0FFF75AFD71
:101B5000009007E0FFF756FD0099411A41F28830E6
:101B6000814256D830688007F4D42FB1DBF80010DA
:101B700021F08051CBF80010A069C8B33D49091D80
:101B80000968C1F3810102294AD00228504607D0D2
:101B9000C8F8600000E03CE0FFF734FD04463BE09D
:101BA0004746C8F86000FFF72DFD064605E000BF78
:101BB000FFF728FD801B02282BD828688001F7D466
:101BC000D4E907010843A16A2E4A490802EB014102
:101BD000626A41EA8211084394F82C1040EA0161DC
:101BE000C9F8001001203866FFF70CFD044606E036
:101BF0003EE000BFFFF706FD001B022809D8286859
:101C00008001F7D534E000BFFFF7FCFC001B022881
:101C100002D90320BDE8F88F28688001F4D427E0BA
:101C20000128F7D0D9F80000E26900F48001914260
:101C30001CD1226A00F03F01914217D147F6C071D2
:101C4000626A0140B1EB821F10D1A26A4FF0FF33EC
:101C500000F4403103EB5202B1EB024F06D194F88D
:101C60002C1000F07060B0EB016F01D00120D1E7C3
:101C70000020CFE70438024000004742800E474270
:101C8000007000400000FFFF70B5040009D0606ADA
:101C9000002540B125616561A56294F8510040B10D
:101CA0000CE0012070BD6068B0F5827FF4D0E56182
:101CB000F2E784F85050204600F044F8022084F8FF
:101CC00051002068016821F040010160A08821894D
:101CD00000F4827001F404410843A18901F4006119
:101CE0000843217C01F002010843217D01F001013C
:101CF0000843218B01F400710843217F01F0380172
:101D0000084394F8201001F080010843218D01F46C
:101D10000051084321680860A069042101EA1040CD
:101D200094F8241001F010010843216848602068ED
:101D3000C16921F40061C1616565012084F8510029
:101D4000002070BDF0B587B0044614216846FEF748
:101D500002FB1C492068884232D11B4800240168DC
:101D600041F480510160006800F4805005901648ED
:101D70001438016841F002010160016801F00201BC
:101D80000591016841F0010101600068022500F041
:101D9000010005901820CDE9000502AA03260527B9
:101DA00082E8D00069460948FFF734FB8020CDE97E
:101DB000000502AA694682E8D0000548FFF72AFB21
:101DC00007B0F0BD0030014044380240000402403A
:101DD0000000024010B5401EB0F1807F01D3012009
:101DE00010BD4FF0E02460610F21601700F049FF43
:101DF0000020A06107202061002010BD70477047BF
:101E0000F8B5016804460868CA684B6910F00F0FFE
:101E10004FF0000559D003F0010602F490773743E4
:101E200065D0C10705D0D10503D5216C41F0010172
:101E30002164410705D5D90703D0216C41F0020187
:101E40002164810705D5D90703D0216C41F0040135
:101E50002164010707D502F02001314303D0216C32
:101E600041F008012164216C00293AD0800604D594
:101E7000900602D5204600F0CDFD20684069216C17
:101E8000C0F38010090700D460B3204600F08DFD38
:101E900020684069400621D52068143050E8001FB2
:101EA00021F0400140E80012002AF5D1A06BA8B152
:101EB0006C490165A06BFFF717F9002811D0A06BE2
:101EC000016D01B0BDE8F040084783060FD59306C9
:101ED0000DD52046BDE8F84000F09CBD2046FFF738
:101EE0008EFFF8BD2046FFF78AFF2564F8BD266BFC
:101EF0002023012E79D1C60677D5D60675D5086878
:101F0000486800904869400640D5A16B0868406861
:101F10000004000CEAD0A28D8242E7D9E085C869AE
:101F2000B0F5807F2DD020680C3050E8001F21F4E0
:101F3000807140E80012002AF5D12068143050E882
:101F4000001F21F0010140E80012002AF5D12068AD
:101F5000143050E8001F21F0400140E80012002A30
:101F6000F5D184F83E30256320680C3050E8001F1E
:101F700021F0100140E80012002AF5D1A06BFFF714
:101F80006AF8A08DE18D401A81B229E0A08DE18D23
:101F9000401A81B2E08D0028A8D00029A6D0206880
:101FA0000C3050E8002F22F4907240E80026002EFA
:101FB000F5D12068143050E8002F22F0010240E8EB
:101FC0000026002EF5D184F83E30256320680C30C1
:101FD00050E8002F22F0100240E80023002BF5D13A
:101FE0002046FFF70BFFF8BDFFE705062BD51506CA
:101FF00029D594F83D002128F5D1A068B0F5805F7F
:1020000001D12069B0B1206A411C216221680078A9
:102010004860E08C401E0004000CE084E3D120689E
:10202000C16821F08001C1602068C16841F04001B1
:10203000C160D8E7206A0088C0F308004860206AC1
:10204000801C2062E5E74006CDD55006CBD5CA6896
:10205000204622F04002CA6084F83D3000F032F998
:10206000C1E700006928000870B5040004D094F8A6
:102070003D00002510B106E0012070BD84F83C5001
:10208000204600F023F8242084F83D002068C16831
:1020900021F40051C160204600F01CFD2068016958
:1020A00021F4904101612068416921F02A014161D8
:1020B0002068C16841F40051C1602564202084F883
:1020C0003D0084F83E00002070BD00002DE9F04185
:1020D00086B0064614216846FEF73DF9304930685F
:1020E000884259D12F480024016841F480210160C1
:1020F000006800F4802005902A481038016841F0FB
:10210000040101600068694600F0040005904FF486
:10211000406000900220CDE90104032003900720D5
:1021200004902148FFF776F9214D20484FF00067D1
:102130002860C5E901744FF48068C5E903486C6103
:10214000AC61EC612C6228466C62FFF7AFF808B115
:10215000FEF757FBB563AE63154D1448603530305C
:10216000E5E802074020A5E81101114845F81449A7
:102170006030AC61EC612C626C62FFF797F808B1DB
:10218000FEF73FFB7563002205212720AE63FFF7B2
:10219000A7FA2720FFF796FA06B0BDE8F081000005
:1021A00000480040403802400008024028600240D9
:1021B000AC05002090F83E30202B0ED159B152B121
:1021C00090F83C30012B08D0012380F83C300023EC
:1021D000036300F005BD0120704702207047000036
:1021E000104908B588421BD1086801684068009012
:1021F00019220D490B4800F01FF80C4A0A490C48F7
:1022000000F04CFA0A4800F038FA0849084800F093
:1022100008FABDE80840192203490248FFF7CABF7F
:1022200008BD000068050020140000202E000020DA
:10223000520000207047000070B5044690F83D0041
:10224000202836D191B38AB394F83C00012830D0CD
:10225000012084F83C002162A284E28400252564E8
:10226000212084F83D00636B1348D863636B1348E7
:102270001864636B1248D864606B13460565266862
:10228000606B321DFFF77CF821686FF0400008603A
:1022900084F83C502068143050E8001F41F0800161
:1022A00040E80012002AF5D1002070BDFFE70120B0
:1022B000FBE70220F9E700005F290008A1290008D8
:1022C0007928000870477047FEE700000F4810B5F6
:1022D0000D4901600321416000214FF4102281600B
:1022E000C0E903124FF40012426101764176817613
:1022F000C17601774177FEF716FD002803D0BDE8CF
:102300001040FEF77EBA10BD00640040C0040020FB
:102310000F4810B50D4901600321416000214FF4C1
:1023200010228160C0E903124FF40012426101766D
:1023300041768176C17601774177FEF7F4FC00287B
:1023400003D0BDE81040FEF75CBA10BD0068004045
:10235000E80400200D4808B5016841F4001101604F
:102360000068002200F40010009011460C20FFF7D6
:10237000B7F90C20FFF7A6F9002211460E20FFF74F
:10238000AFF9BDE808400E20FFF79CB93038024095
:10239000154808B5016841F002010160016801F0CB
:1023A00002010091016841F001010160016801F042
:1023B00001010091016841F008010160016801F02C
:1023C00008010091016841F004010160016801F019
:1023D00004010091016841F080010160006800F093
:1023E0008000009008BD000030380240104810B551
:1023F0000E4901604FF48271416000210222816028
:10240000C0E9031201224261520282611822C0E92E
:102410000721416281620A21C162FFF735FC002871
:1024200003D0BDE81040FEF7ECB910BD003001400C
:10243000100500200E4810B50C4901600D4941609F
:102440004FF4805181604900C160C91001610C21C5
:10245000416100218161C161FFF706FE002803D0C0
:10246000BDE81040FEF7CDB910BD000000480040A7
:1024700068050020A0860100FEE7000010B50446B4
:102480002B4840F20F31B0F9002002F10903132B61
:1024900001D2BE2205E0C2EB0212920092FBF1F2E1
:1024A000BE32E260B0F9040000F10902132A01D241
:1024B000962005E0C0EB0010800090FBF1F0963014
:1024C000C4F8C400B4F9120000EE100A04F14C0084
:1024D000B8EEC01A94ED020AF8EE400A94ED030A31
:1024E000B8EEC00A00F0B3FCB4F9CA0000EE100A5E
:1024F00004F58270B8EEC01A94ED300AF8EE400A86
:1025000094ED310AB8EEC00A00F0A1FC94ED5B0A2C
:10251000BDEEC00A10EE100A94ED2D0ABDE8104081
:10252000BDEEC00A01B210EE100A00B2FDF7B0BF56
:102530005200002070B5044608880D4640BAA080BD
:1025400000F0DEFE9FED0B1B53EC112B00F0ECFEB8
:102550009FED0A1B53EC112B00F036FD00F08CFEB2
:10256000A060688840BA6082A88840BAA082A87932
:10257000A07570BD000000000080764000000000E3
:1025800000FFBF4010B5B3EE041A2DED048BF7EE3B
:10259000000AB3EE040ADFED1D8A9FED1D8A1D4877
:1025A000B0EE682AF0EE481A00F064FC9FED1A9A2B
:1025B0001848F0EE481AB0EE492AB3EE041AF7EEC6
:1025C000000AB2EE040A343000F054FC1148B0EEB8
:1025D000682AF0EE481AB0EE481AF7EE000AB3EE99
:1025E000040AB83000F046FCB0EE492AF0EE481A72
:1025F000BDEC048BB1EE041AF7EE000A0548BDE805
:102600001040B1EE040AEC3000F034BC00401C462F
:1026100000000000B000002000007A44FEE7704790
:10262000704710B50A8840F25B24A2F580620280F0
:102630004A88A2F5806242808A88A2F58062828000
:10264000CA88A2F58062C2800B894FF46272B3FB24
:10265000F2F303724B89B3FBF2F343728B89B3FB42
:10266000F4F38372CB89B3FBF2F2C2720A8AF03AB6
:102670008281498AF039C18110BD417C11B9017C48
:1026800000290AD00021018041808180C18001722F
:1026900041728172C1728181C181704710B5B1F8F8
:1026A0000130C3F30A0313808B78CC78DB0843EA4C
:1026B0004413C3F30A035380CB780C799B0943EA94
:1026C00084034C7943EA8423C3F30A0393804B7950
:1026D0008C795B0843EAC413C3F30A03D3808B7974
:1026E000CC791B0943EA0413C3F30A031381CB79A2
:1026F0000C7ADB0943EA44034C7A43EA4423C3F3EC
:102700000A0353814B7A8C7A9B0843EA8413C3F300
:102710000A0393818B7ACC7A5B0943EAC403D381A1
:102720008B89C3F30A0313824B7B8C7BDB0843EA60
:102730004413C3F30A0353828B7BCC7B9B0943EA8C
:1027400084030C7C43EA8423C3F30A0393820B7C47
:102750004C7C5B0843EAC413C3F30A03D3824B7C6B
:102760008C7C1B0943EA0413C3F30A0313838B7C99
:10277000CC7CDB0943EA44030C7D43EA4423C3F3E6
:102780000A0353830B7D4C7D9B0843EA8413C3F3F8
:102790000A0393834B7D8C7D5B0943EAC403D38397
:1027A000CB7DDB091384CB7DC3F380135384CA7DB7
:1027B000C2F3C0024274C97DC1F38001017410BD2F
:1027C000FEF726BF30B593B030216846FDF7C3FD54
:1027D00014210CA8FDF7BFFD1D480025016841F03C
:1027E00080510160006800F0805011901948016824
:1027F00041F4804101600068022400F4804011909F
:1028000001200090000401908001CDE906400620DF
:102810000890A820CDE9090404200B906846FFF732
:102820007DF808B172B6FEE70CA90F2081E83100EF
:102830004FF4A0500F904FF48050109005210CA839
:10284000FEF780FF002801D072B6FEE713B030BD5E
:1028500040380240007000400248016841F47001B5
:102860000160704788ED00E010B5806B0021C185E4
:10287000C184FFF7C4FA10BD70B5846B206840694D
:1028800094F83D10C0F3C0100025212904D118B1DF
:10289000E584204600F0B0F82068406994F83E10C6
:1028A000C0F38010222904D118B1E585204600F03C
:1028B0007CF8206C40F0100020642046FFF79FFA5F
:1028C00070BD10B50146806B09680968C9052FD431
:1028D0000021C18501680C3151E8002F22F480727B
:1028E00041E80023002BF5D10168143151E8002F95
:1028F00022F0010241E80023002BF5D101681431D8
:1029000051E8002F22F0400241E80023002BF5D1CE
:10291000202180F83E10016B012909D101680C319A
:1029200051E8002F22F0100241E80023002BF5D1DE
:10293000016B012902D0FFF753FC10BD818DFFF719
:102940005DFA10BD10B5806B016B012902D0FFF755
:1029500071FC10BD818D4908FFF750FA10BD10B50C
:102960000146806B09680968C90516D40021C18435
:102970000168143151E8002F22F0800241E8002361
:10298000002BF5D101680C3151E8002F42F04002D4
:1029900041E80023002BF5D110BDFFF793FC10BDDB
:1029A00010B5806BFFF78FFC10BD01680C3151E84A
:1029B000002F22F4907241E80023002BF5D101682A
:1029C000143151E8002F22F0010241E80023002BCE
:1029D000F5D1016B012909D101680C3151E8002FB3
:1029E00022F0100241E80023002BF5D1202180F8CD
:1029F0003E1000210163704701680C3151E8002F3F
:102A000022F0C00241E80023002BF5D1202180F8FC
:102A10003D10704708B590F83E10222901D00220E1
:102A200008BD82684FF480539A4201D1016921B1F7
:102A3000816A9A421BD04AB10AE00268816A5268F0
:102A4000C2F308020A80816A891C08E0026972B137
:102A50000268526802F07F020A70816A491C816232
:102A6000C18D491E0904090CC18503D019E0026813
:102A70005268F1E70168CA6822F02002CA60016862
:102A8000CA6822F48072CA6001684A6922F00102B1
:102A90004A61202180F83E10016B012903D0FFF725
:102AA0009FFB002008BD0021016301680C3151E843
:102AB000002F22F0100241E80023002BF5D101681D
:102AC0000A68D20602D50A6849680091818DFFF72D
:102AD00095F9E6E770B5044600680169E26821F4FB
:102AE0004051114301612169A068E26908436169AD
:102AF000114308432168CA6849F20C639A430243B0
:102B0000CA6020684169A26921F4407111434161A2
:102B100031492068884202D03049884202D1FEF70C
:102B2000BBFE01E0FEF7A8FEE2690023192164253F
:102B30003226B2F5004F626828D0A0FB0101930F46
:102B40009200FDF791FB0146B0FBF5F06FF0180223
:102B5000504301EB800006EB0010B0FBF5F000F0F5
:102B6000F002B1FBF5F002EB0012B1FBF5F06FF0F3
:102B70001803584301EB800006EB0010B0FBF5F0A2
:102B800000F00F0021681044886070BDA0FB0101B7
:102B900092185B41FDF768FB0146B0FBF5F00201BE
:102BA000B1FBF5F06FF01803584301EB800006EB22
:102BB000C000B0FBF5F000F0F80002EB4002B1FB02
:102BC000F5F0584301EB800006EBC000B0FBF5F0D8
:102BD00000F00700D6E7000000100140001401409B
:102BE00038B581628285002513460446056422209B
:102BF00084F83E00A26B1C48D063A26B1B48106493
:102C0000A26B1B48D064A06B0A4605652168A06BC7
:102C1000091DFEF7B5FB206801684068009084F844
:102C20003C50206948B120680C3050E8001F41F446
:102C3000807140E80012002AF5D12068143050E875
:102C4000001F41F0010140E80012002AF5D1206880
:102C5000143050E8001F41F0400140E80012002A03
:102C6000F5D1002038BD0000C32800084529000820
:102C7000792800080148FFF7C3B800006805002064
:102C8000FEE70907090E002804DB00F1E02080F8C8
:102C90000014704700F00F0000F1E02080F8141DD0
:102CA000704710B5FDF714FCBDE81040FDF7D0BB30
:102CB00010B5F7EE000A2DED048BB2EE040A9FED7D
:102CC0001E8ADFED1E8A9FED1E9AB0EE482AF0EEB6
:102CD000681AB0EE491A1B4800F0CCF81948B0EE5B
:102CE000482AF0EE681AB0EE491AF7EE000AB2EE82
:102CF000040AB83000F0BEF8B0EE482AF0EE681AC8
:102D0000B0EE491AF7EE000AB2EE040A0E4800F0DF
:102D1000B1F8B0EE482AF0EE681AB0EE491ABDECF0
:102D2000048BF7EE000AB2EE040A0748BDE8104033
:102D3000B83000F09FB800000000804600007A44E0
:102D400000000000EC0100205C030020FEF768FC9E
:102D5000FFF738FDFFF71CFBFFF7FCFAFFF7B6FAA9
:102D6000FFF768FBFFF7D4FAFFF740FB0C48006859
:102D7000C16841F01001C16019220A490848FFF7F3
:102D800019FAFFF78EFFFFF793FFFFF7FBFB00BF7A
:102D9000FDF7E8FBFDF738FD0A20FEF729FBF7E712
:102DA000680500201400002080ED090AC0ED0A0A21
:102DB00090ED0B1A70EE600A80ED0C1AC0ED0B0A54
:102DC00090ED000A60EE201AC0ED031A90ED040A9F
:102DD00090ED012A02EE200A70EEC10A80ED040A8D
:102DE00090ED021A20EE812A80ED052AD0ED070A27
:102DF000B1EE601AB4EEC10AF1EE10FA02D2B0EEF2
:102E0000410A06E0B4EEE00AF1EE10FA01DDB0EEA0
:102E1000600A80ED040A31EE800A30EE020A80ED8D
:102E2000060AD0ED080AB1EE601AB4EEC10AF1EE5E
:102E300010FA02D2B0EE410A06E0B4EEE00AF1EE7A
:102E400010FA01DDB0EE600A80ED060A704700B5A9
:102E50000346F0EE412A343000F014F893ED130AE3
:102E6000F0EE620A1846FFF79FFF93ED060A83ED26
:102E70001A0A00BDC0ED071A80ED082A80EC030A8B
:102E80007047000080ED090A30EE600AC0ED0A0AC2
:102E900090ED0B1A10EE101A2F4A80ED0C1ADFED90
:102EA0002F0A80ED0B0A914203D930EE200A80ED03
:102EB0000B0A10EE101A2A4A914203DD30EE600A26
:102EC00080ED0B0A90ED000AD0ED0B0A60EE201A9F
:102ED000C0ED031A90ED040A90ED012A02EE200ADB
:102EE00070EEC10A80ED040A90ED021A20EE812AEC
:102EF00080ED052AD0ED070AB1EE601AB4EEC10AE2
:102F0000F1EE10FA02D2B0EE410A06E0B4EEE00AA9
:102F1000F1EE10FA01DDB0EE600A80ED040A31EE48
:102F2000800A30EE020A80ED060AD0ED080AB1EE02
:102F3000601AB4EEC10AF1EE10FA02D2B0EE410A04
:102F400006E0B4EEE00AF1EE10FA01DDB0EE600A40
:102F500080ED060A704700000000B4C20000344350
:102F60000000B44221F00042A2F16052B2F5801F8D
:102F700001F0004328BFD2F17F6C0BD95FEA001C3F
:102F800043EAC20242EB507018BF704728BF20F0DE
:102F900001007047B2F5801FBCBF184670474FEA6A
:102FA000410C1CF5001F02D2084600F0C0BA70B5F3
:102FB00000F064FA00000089FFF7F6BF4FF0004010
:102FC000A0F58000704700002DE9C04130B4DFF863
:102FD000A0C23CEA111418BF3CEA131400F0EC80C4
:102FE00081EA03051CEA111444EAD57418BF1CEAEF
:102FF000131500F0C780A4EB05044FF0004545EA27
:10300000C12145EAC32341EA505143EA525304F136
:103010007F74994204F500344FEAC0204FEAC2227F
:1030200008BF904200F09C804FEA13650FF24016F3
:10303000765D4FEA134506FB05F7C7F1807706FB7F
:1030400007F74FEAD737A7FB03687642C8F5803801
:10305000A7FB06CE38BFA8F1010807FB08E64FF032
:10306000000EA6FB028CE6FB03CEDCF1000CCEF1D9
:10307000004E38BFAEF1010EA6FB0C584FF0000712
:103080004FF00005E6FB0E87A1FB08C6A0FB07CEAC
:1030900016EB0E0645F10005E1FB076515F1E04E64
:1030A0007EBFA4F580345FEA46066D4116F18007C5
:1030B00045F100054FEA17274FEA066647EA05671C
:1030C000A6F1DE46B6F1805F4FEA15251FD93846D6
:1030D00024F0010C05EBC471BCF1FE6F01EB0C1187
:1030E00002D8F0BCBDE8008124425CBF01F5801E1F
:1030F0009EEAC47F02D4F0BCBDE80081244238D4EB
:10310000F0BCA1F1C041BDE8004100F005BA4FEAB2
:10311000D22242EA43524FEAD323A7FB02864FEA68
:10312000D02040EA415007FB03661EEA0E0F4FEA2B
:10313000D12105FB026658BFA6EB0056B6EB005640
:103140004FEA520E4EEAC37E18EB0E0E56EB530EAC
:10315000BDD518EB02085E417F1C55F10005B6E7AE
:103160004FF480154FF000074FF000064FF00008B5
:10317000ADE7F0BC4FF0000001F1C04101F00041AB
:10318000BDE8008111EA0C1F0CEA131500D00CE019
:1031900013EA0C1F00F025804FF00000F0BC81EA1C
:1031A000030101F00041BDE80081F0BCBDE8004131
:1031B00081EA030100F0B0B9F0BCBDE8004170B590
:1031C00000F05CF9097EFC3E00F007B881EA0301DB
:1031D0004FF0000001F00041704781EA030100F068
:1031E0009BB9F0BCBDE800414FF000002149704799
:1031F000FFFDFBF9F7F5F4F2F0EEEDEBE9E8E6E4BC
:10320000E3E1E0DEDDDBDAD8D7D5D4D3D1D0CFCD42
:10321000CCCBCAC8C7C6C5C4C2C1C0BFBEBDBCBB7B
:10322000BAB9B8B7B6B5B4B3B2B1B0AFAEADACAB76
:10323000AAA9A8A8A7A6A5A4A3A3A2A1A09F9F9E50
:103240009D9C9C9B9A999998979796959594939302
:10325000929191908F8F8E8E8D8C8C8B8B8A898999
:10326000888887878685858484838382828181801C
:103270000000FF070000F87F4FEA1153A3F58063B9
:10328000D3F11E03A8BFD3F1200C08DB4FF000429E
:1032900042EAC12252EA505232FA03F07047094220
:1032A0000BD4102BC4BF0020704703F5787CBCF111
:1032B000FF3F05D04FF0FF3070474FF000007047E0
:1032C00070B500F0DBF800BF499224800020704701
:1032D000F0E710F0004248BF4042B0FA80F310FA25
:1032E00003F10AD0C3F11D0303F580634FEA415097
:1032F00002EB035202EBD12170474FF00000704700
:10330000B0FA80F310FA03F10AD0C3F11D0303F5FC
:1033100080634FEA41504FEA035202EBD1217047DC
:103320004FF0000070470000DFF848C170B51CEA9C
:10333000111E1EBF1CEA13159EEA0C0F95EA0C0F16
:1033400000F06F8081EA030423EA4C134EEAD47E36
:1033500021EA4C1141F4801143F48013AE44A1FBE7
:10336000024CA0FB0365AEF17F7E361955EB0C05D0
:10337000A1FB034C4CF10003A0FB021C16EB0C0656
:10338000654153F10003094218BF46F0010613F4EA
:10339000007F0BD14FEA03314FEA0530340341EA95
:1033A000155140EA16506FF003020AE04FEAC321BC
:1033B0004FEAC520F40241EA555140EA56506FF0F9
:1033C000020202EB2E4201EB025585EACE710AD0D1
:1033D0005FEA440C18BF24F0004450F1000041F1B2
:1033E000000120EAD47040F2FE7C624500D270BD3C
:1033F000A84214BF4FF080444FF04044002E08BF55
:103400000024BEF1806FA8BFA1F1C041BDE87040AB
:1034100080F282804FF0000001F1C04101F00041D4
:1034200070479EEA0C0F0CEA131518BF95EA0C0FB3
:1034300006D04FF0000081EA030E0EF0004170BD8F
:1034400000F01CF88900013E00F007B800F009B850
:103450004FEA430C5FEA5C5C08D081EA030100F0AC
:103460005BB84FEA410C5FEA5C5CF6D14FF00000BC
:10347000014970470000FF070000F87F0EF1020EBF
:103480002EF0030E5EF8046B364205D4012A43EB9E
:10349000030515F5001F12D8012841EB010C1CF59E
:1034A000001F0CD80ED14FEAD17C15F5001F0CEB94
:1034B0004C0C0CF1020C08BF4CEBD37C04E04FF039
:1034C000080C01E04FEAD37C0CEB4C0526FA05F61C
:1034D00006F00706B6F1040C06D20EEB860CBDE82A
:1034E00070404CF0010C6047DFE80CF0090B020261
:1034F0004FF000414FF00000A1F5002170BD1946CA
:103500001046012851EB010418BFD4F5001484BF04
:10351000002001F0004170BD0808A0F500114FEA3D
:10352000310170474FF04070E1EE100A7047FF2103
:1035300041EAD050C005704700061016000610166C
:103540000000000000000000010203040607080953
:10355000000000000102030478350008000000208C
:1035600014000000C40100088C350008140000207D
:10357000BC0C0000E0010008000000000100000099
:0C35800010000000000000000024F40017
:040000050800018965
:00000001FF
