:020000040800F2
:1000000010060020A1010008B92800089126000868
:10001000DD2700087D0500085D32000800000000B3
:10002000000000000000000000000000BF280008E1
:10003000FB06000800000000BD2800087F2A000819
:10004000BB010008BB010008BB010008BB010008A0
:10005000BB010008BB010008BB010008BB01000890
:10006000BB010008BB010008BB010008BB01000880
:10007000BB010008D1050008BB010008E10500082C
:10008000BB010008BB010008BB010008BB01000860
:1000900081050008BB010008BB010008BB01000886
:1000A000BB010008BB010008BB010008BB01000840
:1000B000BB010008BB010008BB010008BB01000830
:1000C000BB010008BB010008BB010008BB01000820
:1000D000BB010008BB010008BB010008BB01000810
:1000E000BB010008BB010008BB010008BB01000800
:1000F000BB010008BB010008BB010008BB010008F0
:10010000BB010008BB010008BB010008BB010008DF
:10011000592B0008BB010008BB010008BB01000807
:10012000BB010008BB010008BB010008BB010008BF
:10013000BB010008BB010008BB010008BB010008AF
:10014000BB010008BB010008BB010008BB0100089F
:10015000BB010008BB010008BB010008BB0100088F
:10016000BB010008BB010008BB010008BB0100087F
:10017000BB010008BB010008BB0100080000000033
:10018000BB010008BB010008DFF810D000F0E4F963
:100190000048004711330008AFF30080100600202C
:1001A0000648804706480047FEE7FEE7FEE7FEE711
:1001B000FEE7FEE7FEE7FEE7FEE7FEE73D2B000871
:1001C000890100082DE9F05F0546002092469B4614
:1001D00088460646814640241BE02846414647465D
:1001E000224600F04CF953465A46C01A914110D3AA
:1001F00011461846224600F033F92D1A67EB010824
:100200004F4622460120002100F02AF917EB000991
:100210004E41201EA4F10104DFDC484631462A4647
:100220004346BDE8F09FD2B201E000F8012B491E21
:10023000FBD270470022F6E710B513460A46044683
:100240001946FFF7F0FF204610BD2DE9FE4F81EA69
:10025000030404F0004421F0004100944FF0000B2F
:1002600023F0004350EA01045ED052EA03045BD05D
:10027000C3F30A54C1F30A552C44A4F2F334019495
:10028000A0FB0254C1F3130141F48011C3F3130323
:1002900043F4801301FB024400FB034E840A970AD7
:1002A00044EA815447EA8357A4FB076802958D0A04
:1002B00005FB07854FEA932C04FB0C542705029D90
:1002C0004FEA065847EA1637B5EB08056EEB070C00
:1002D000870E920E47EA811742EA8312A7FB0201BA
:1002E000B6EB0B0164EB00042B0D43EA0C335E18F4
:1002F00044EB1C50DA465146E7FB0201C5F31304F8
:100300004FEA0B3343EA14534FEA0432019C43EAA9
:100310000603A4F10C040294009CCDE900B400F0A3
:10032000CDF803B0BDE8F08F00200146F9E72DE9D4
:10033000F04D81EA030404F0004B21F0004514461F
:100340004FF0000A23F0004150EA050220D054EAA1
:1003500001021DD0C5F30A570246C5F31303C1F3CA
:100360001300C1F30A5640F4801543F48013A7EB41
:100370000608101BD64608F2FD3873EB050002D3C1
:1003800008F1010801E092185B41B8F1000F03DAAF
:1003900000200146BDE8F08D00204FF48011064694
:1003A00084460EE0171B73EB050705D3121B63EBA6
:1003B000050306434CEA010C49084FEA3000921845
:1003C0005B4150EA0107EDD152EA030012D082EA04
:1003D000040083EA0501084305D0101BAB4106D297
:1003E0000122002306E000224FF0004302E06FF0FC
:1003F000010253101AEB06004CEB085110EB0A00F7
:1004000041EB0B01BDE8F04D00F049B80EB5C10F4E
:1004100080EAE0700844CA07002140F233438DE8C7
:100420000E000A460B4600F049F803B000BDC1F3C8
:100430000A5210B5C1F3130140F2FF3341F48011A9
:100440009A4201DA002010BD40F233439A42A2F2F0
:10045000334203DC524200F012F810BD904010BD50
:10046000202A04DB203A00FA02F100207047914074
:10047000C2F1200320FA03F3194390407047202A69
:1004800004DB203A21FA02F00021704721FA02F33E
:10049000D040C2F12002914008431946704710B580
:1004A000141E73F1000408DA401C41F10001921897
:1004B0005B411A4301D120F0010010BD2DE9F04D40
:1004C00092469B4611B1B1FA81F202E0B0FA80F295
:1004D00020329046FFF7C4FF04460F4640EA0A0068
:1004E00041EA0B0153465A46084313D0114653EADA
:1004F000010019D0C8F140025046FFF7C0FF054681
:100500000E46504659464246FFF7AAFF084305D01B
:10051000012004E020463946BDE8F08D0020054367
:1005200046EAE0762C4337430A986305E40AA0EBD9
:1005300008000022FD0A44EA47540A3002D5002090
:100540000146E9E7010510196941DDE9084500198F
:100550006941BDE8F04DA2E7064C074D06E0E068B2
:1005600040F0010394E8070098471034AC42F6D3FA
:10057000FFF70EFEA0340008C034000800BFFEE7FD
:1005800010B5024800F0CEFA10BD0000E0000020D7
:1005900030B589B005460C4600200190029040F22B
:1005A000FF10039000200690059008200790200A75
:1005B0008DF80A00E0B28DF80B00012301AA03A90F
:1005C000024800F0B3F809B030BD0000E0000020A0
:1005D00010B5024800F0BCFD10BD00004C01002029
:1005E00010B5024800F0B4FD10BD0000AC010020C1
:1005F0000146087810381823B0FBF3F20848805CF5
:10060000C865032A05D908686FF30900001D8865CD
:1006100003E008686FF309008865886D7047000083
:100620007E340008014600208A6A8B69CBB932B15A
:10063000012A0DD0022A03D0032A10D10EE000BFF8
:10064000CB6A03F08073B3F1807F00D1012007E013
:10065000CB6AB3F1C07F00D1012001E000E000BF10
:1006600034E08B69B3F5005F1AD132B1012A07D0AB
:10067000022A03D0032A11D10AE000BF01200EE0B4
:10068000CB6A03F08073B3F1807F00D1012006E0D4
:10069000CB6AB3F1C07F00D1012000E000BF15E0BC
:1006A00032B1012A05D0022A04D0032A0CD103E07A
:1006B00000BF00BF012008E0CB6A03F08073B3F1F4
:1006C000807F00D1012000E000BF00BF704730B53F
:1006D0000468246824F4802405682C60046863603E
:1006E0008468402C04D10468A2600468E16003E0DF
:1006F0000468A1600468E26030BD704772B600BF54
:10070000FEE710B5024692F82030012B01D0022BF3
:1007100006D110684069084314686061002010BD6C
:10072000506A40F4802050620120F8E7F0B504469A
:100730000D461E4694F8207020688368A86800B9AA
:1007400000E000BF012F01D0022F7CD103F08060B8
:1007500030B903F0006018B903F08050002873D05E
:10076000C3F30161022905D9606A40F400006062A8
:100770000120F0BD012088403060A86860B9B5F85C
:1007800000C0E86840EA4C5C206800F5C07000EBEF
:100790000110C0F800C00FE0D5E901C040EACC006C
:1007A000D5F80CC040EA0C00D4F800C00CF5C07CB1
:1007B0000CEB011CCCF80000D5F810C0206800F547
:1007C000C07000EB0110C0F804C0287D01280ED1D4
:1007D000206800F5C07000EB0110406840F4807C98
:1007E000206800F5C07000EB0110C0F804C0D0799B
:1007F000000692F806C040EA0C4092F805C040EAB4
:100800000C2C10794CEA000C206800F5C07000EB4D
:100810000110C0F80CC0D078000692F802C040EA7F
:100820000C4092F801C040EA0C2092F800C040EA67
:100830000C00D4F800C00CF5C07C0CEB011CCCF80B
:100840000800206801E016E00FE000F5C07000EB42
:100850000110006840F0010C206800F5C07000EB4A
:100860000110C0F800C0002083E7606A40F4001067
:10087000606201207DE7606A40F4802060620120B0
:1008800077E70000F0B504460A46216894F8205046
:10089000012D01D0022D7ED1424901F50071086879
:1008A00040F001000860086820F47C500860086887
:1008B000566A40EA06200860107D00F01F060120FD
:1008C00000FA06F3C8699843C861A1F50071D069C0
:1008D000C8B9D1F80C029843C1F80C02908880B2D4
:1008E000968940EA064601F51070576940F837606E
:1008F000108880B2168940EA064601F510705769E3
:1009000000EBC7004660D069012819D1D1F80C026C
:100910001843C1F80C02908880B2168840EA064657
:1009200001F51070576940F83760908980B21689D8
:1009300040EA064601F51070576900EBC7004660B3
:10094000906928B9D1F804029843C1F8040204E080
:10095000D1F804021843C1F80402106928B9D1F88B
:1009600014029843C1F8140204E0D1F814021843A9
:10097000C1F81402106A012804D1D1F81C021843EE
:10098000C1F81C02D1F8000220F00100C1F80002F9
:100990000020F0BDFFE7606A40F480206062012023
:1009A000F7E7000000640040704770B5044694F813
:1009B0002050012D01D0022D7DD151B92068C06891
:1009C00000F0030080B9606A40F40010606201200A
:1009D00070BD2068006900F0030028B9606A40F427
:1009E000001060620120F3E7206800F5D87000EB8A
:1009F0000110006800F004009060906840B9206821
:100A000000F5D87000EB01100068400D106007E0A1
:100A1000206800F5D87000EB01100068C008506035
:100A2000206800F5D87000EB0110006800F00200AB
:100A3000D060206800F5D87000EB0110406800F02D
:100A40000F001061206800F5D87000EB01104068BD
:100A500000F47F40000A9061206800F5D87000EB38
:100A600001104068000C5061206800F5D87000EB60
:100A7000011080681870206800F5D87000EB011034
:100A8000806800F47F40000A5870206800F5D87034
:100A900000EB0110806800F47F00000C9870206863
:100AA00000F5D87000EB01108068000ED870206847
:100AB00000F5D87000E02FE000EB0110C06818715D
:100AC000206800F5D87000EB0110C06800F47F408A
:100AD000000A5871206800F5D87000EB0110C0685A
:100AE00000F47F00000C9871206800F5D87000EBCE
:100AF0000110C068000ED87131B92068C06840F09C
:100B000020002668F06005E02068006940F02000C1
:100B10002668306100205BE7606A40F480206062F4
:100B2000012055E72DE9F05F04460025206846695D
:100B30002068D0F80490206887682068D0F80CA05E
:100B40002068D0F810B02068D0F8188006F00100B6
:100B5000002855D007F00100C0B10120216888604D
:100B600007F0020018B1204600F081FA0EE007F00D
:100B7000040010B145F4006508E007F0080010B16A
:100B800045F4805502E0204600F070FA07F48070CA
:100B9000C8B14FF480702168886007F4007018B104
:100BA000204600F066FA0EE007F4806010B145F4CC
:100BB000005508E007F4006010B145F4804502E0FC
:100BC000204600F055FA07F48030C8B14FF4803069
:100BD0002168886007F4003018B1204600F04BFA15
:100BE0000EE007F4802010B145F4004508E007F45A
:100BF000002010B145F4803502E0204600F03AFABA
:100C000006F0080038B10AF0100020B145F4007574
:100C100010202168C86006F0040040B10AF0080006
:100C200028B108202168C860204600F0A9F906F024
:100C3000020038B12068C06800F0030010B12046FF
:100C400000F0A0F906F0400038B10BF0100020B120
:100C500045F4806510202168086106F0200040B14D
:100C60000BF0080028B1082021680861204600F038
:100C7000CBF906F0100038B12068006900F00300DD
:100C800010B1204600F0C1F906F4003040B109F07F
:100C9000100028B1102021684860204600F0B6F905
:100CA00006F4803040B109F0080028B1082021681E
:100CB0004860204600F0E0F906F4004088B309F0EF
:100CC000040078B306F4807020B108F0010008B188
:100CD00045F0010506F4007020B108F0020008B1EB
:100CE00045F0020506F4806020B108F0040008B168
:100CF00045F0040506F40060A0B108F0700088B16A
:100D000008F07000402817D006DC10280BD02028EF
:100D10000CD0302819D10CE0502810D0602814D104
:100D200010E01DE019E045F008050FE045F0100562
:100D30000CE045F0200509E045F0400506E045F0EF
:100D4000800503E045F4807500E000BF00BF206827
:100D5000806920F070002168886104202168486063
:100D60002DB1606A284360622046FFF71DFEBDE892
:100D7000F09F70B504460CB9012070BD94F82000B6
:100D800010B9204600F0B0F82068006840F001007B
:100D90002168086000F0CAFC05460DE000F0C6FCC2
:100DA000401B0A2808D9606A40F4003060620520C0
:100DB00084F820000120E0E72068406800F001008E
:100DC0000028EBD02068006820F00200216808604D
:100DD00000F0ACFC05460DE000F0A8FC401B0A2822
:100DE00008D9606A40F400306062052084F8200071
:100DF0000120C2E72068406800F002000028EBD123
:100E0000207E012806D12068006840F0800021681B
:100E1000086005E02068006820F080002168086014
:100E2000607E012806D12068006840F040002168FB
:100E3000086005E02068006820F040002168086034
:100E4000A07E012806D12068006840F020002168BB
:100E5000086005E02068006820F020002168086034
:100E6000E07E012806D12068006820F0100021688B
:100E7000086005E02068006840F010002168086004
:100E8000207F012806D12068006840F00800216812
:100E9000086005E02068006820F00800216808600C
:100EA000607F012806D12068006840F004002168B6
:100EB000086005E02068006820F0040021680860F0
:100EC000D4E9020108432169084361690843616864
:100ED000491E08432168C86100206062012084F82F
:100EE0002000002049E7000010B586B00446142118
:100EF00001A8FFF79FF91F492068884237D100BF3A
:100F0000002000901C48006840F000701A490860FA
:100F10000846006800F00070009000BF00BF00BFEE
:100F20000020009014481038006840F00800124972
:100F3000103908600846006800F00800009000BF03
:100F400000BF0320019002200290002003900320A4
:100F500004900920059001A9084800F0EDFA00224C
:100F60001146142000F06CFC142000F059FC06B06F
:100F700010BD00000064004040380240000C0240F8
:100F80007047000010B58AB004461D4920688842A9
:100F900033D101AB03AA00212046FFF706FD0398D9
:100FA000B0F5027F28D19DF805009DF8041040EAB5
:100FB0000120144988809DF807009DF8061040EA3A
:100FC000012000B20F4908829DF809009DF8081021
:100FD00040EA012000B20B494882084680884FF45D
:100FE000B471484341F6FF7190FBF1F00549886008
:100FF0009DF80A00087500BF00BF0AB010BD0000D0
:10100000006400406000002070477047704770B572
:10101000044694F82000012822D1022084F8200000
:101020002068006820F001002168086000F07EFB65
:1010300005460DE000F07AFB401B0A2808D9606ADB
:1010400040F400306062052084F82000012070BD6B
:101050002068406800F001000028EBD16062F6E7EC
:10106000606A40F4002060620120F0E7704770473A
:101070007047704770477047704770B50446A56D5C
:1010800000F054FB064694F83500022808D0802072
:10109000606500BF002084F8340000BF012070BDEF
:1010A0002068006820F01600216808602068406908
:1010B00020F0800021684861206C08B9A06C28B13C
:1010C0002068006820F00800216808602068006837
:1010D00020F001002168086010E000F027FB801B71
:1010E00005280BD920206065032084F8350000BF57
:1010F000002084F8340000BF0320D0E72068006897
:1011000000F001000028E8D194F85C103F208840EE
:10111000A860012084F8350000BF002084F8340066
:1011200000BF00BFBBE7014691F83500022803D09D
:101130008020486501207047052081F83500086847
:10114000006820F001000A6810600020F3E700004A
:10115000F8B50446002000908C4800684FF4165102
:10116000B0FBF1F7A56D2E6894F85C10082088405C
:10117000304098B12068006800F0040070B1206829
:10118000006820F004002168086094F85C100820D2
:101190008840A860606D40F00100606594F85C10C4
:1011A00001208840304068B12068406900F080002C
:1011B00040B194F85C1001208840A860606D40F058
:1011C0000200606594F85C1004208840304068B1EB
:1011D0002068006800F0020040B194F85C10042020
:1011E0008840A860606D40F00400606594F85C1071
:1011F00010208840304078B32068006800F0080074
:1012000050B394F85C1010208840A86020680068F3
:1012100000F4802080B12068006800F4002028B924
:10122000206CC8B12046216C884715E0A06C98B1AD
:101230002046A16C88470FE02068006800F48070A9
:1012400028B92068006820F0080021680860206C38
:1012500010B12046216C884794F85C10202088400B
:101260003040002865D02068006800F01000002899
:101270005FD094F85C1020208840A86094F8350076
:10128000052828D12068006820F016002168086031
:101290002068406920F0800021684861206C08B90E
:1012A000A06C28B12068006820F008002168086060
:1012B00094F85C103F208840A860012084F8350035
:1012C00000BF002084F8340000BF206D10B120461C
:1012D000216D8847F8BD2068006800F4802080B147
:1012E0002068006800F4002028B9606C10B1204626
:1012F000616C88471DE0E06BD8B12046E16B884700
:1013000017E02068006800F4807068B92068006801
:1013100020F0100021680860012084F8350000BF2B
:10132000002084F8340000BFE06B10B12046E16B70
:101330008847606D38B3606D00F00100F0B10520A2
:1013400084F835002068006820F0010021680860FA
:1013500000BF0098401C0090B84200D905E020680A
:10136000006800F001000028F3D100BF012084F8DC
:10137000350000BF002084F8340000BFE06C10B1DD
:101380002046E16C884700BFA4E700000C00002065
:101390002DE9F0410446002500F0C8F9074614B9CC
:1013A0000120BDE8F081606A00B100BF022084F82E
:1013B000350000BF002084F8340000BF20680068BA
:1013C00020F00100216808600AE000F0AFF9C01BBE
:1013D000052805D920206065032084F83500E0E762
:1013E0002068006800F001000028EED12068056840
:1013F00021480540D4E901010843E1680843216917
:10140000084361690843A1690843E1690843216A07
:1014100008430543606A042803D1D4E90B0108435B
:101420000543206805602068456925F00705606A66
:101430000543606A04280DD1A06A0543E06A48B1FB
:101440002046FFF7EFF828B140206065012084F8BE
:101450003500A6E7206845612046FFF7C9F8064633
:1014600094F85C103F208840B06000206065012047
:1014700084F83500002094E73F8010F02DE9F04714
:1014800004460D4616461F464FF00008D4F8589003
:1014900000BF94F83400012802D10220BDE8F08793
:1014A000012084F8340000BF94F83500012825D1CC
:1014B000022084F83500002060653B46324629460C
:1014C0002046FFF704F994F85C103F208840C9F8E3
:1014D00008002068006840F0160021680860206C51
:1014E00028B12068006840F0080021680860206882
:1014F000006840F001002168086006E000BF00209D
:1015000084F8340000BF4FF002084046C6E70000F0
:1015100070B5044600F00AF906462546681C10B16D
:1015200004480078054400BF00F000F9801BA84281
:10153000FAD370BD08000020F8B502460B4600251E
:10154000002400200021D6E0012606FA01F51E68DD
:1015500006EA0504AC4274D11E7906F00306012E9A
:1015600004D01E7906F00306022E13D190684F00B6
:101570000326BE40B0434F00DE68BE40304390605B
:10158000506801268E40B0431E79C6F300168E4087
:10159000304350601E7906F00306032E09D0D06850
:1015A0004F000326BE40B0434F009E68BE4030430C
:1015B000D0601E7906F00306022E13D1CF0802F187
:1015C000200656F827004E07F70E0F26BE40B04300
:1015D0004F07FF0E1E69BE403043CF0802F12006C0
:1015E00046F8270010684F000326BE40B0431E791E
:1015F00006F003064F00BE40304310605E6806F4FC
:101600004036002E76D000BF002600963C4E36684D
:1016100046F480463A4F3E603E46366806F48046C1
:10162000009600BF00BF374E8F0856F827008E0780
:10163000370F0F26BE40B043334EB24202D10026D0
:1016400024E057E0314EB24201D101261EE0304E77
:10165000B24201D1022619E02E4EB24201D1032638
:1016600014E02D4EB24201D104260FE02B4EB242BF
:1016700001D105260AE02A4EB24201D1062605E034
:10168000284EB24201D1072600E008268F073F0FFF
:10169000BE4030431B4E8F0846F82700224E30686C
:1016A000A0435E6806F4801606B120431E4E3060EB
:1016B000361D3068A0435E6806F4001606B120436C
:1016C000194E361D3060184E361F3068A0435E68D4
:1016D00006F4003606B12043134E361F3060361F25
:1016E0003068A0435E6806F4803606B120430E4E93
:1016F000083E3060491C1029FFF426AFF8BD0000F9
:101700004438024008380140000002400004024012
:1017100000080240000C0240001002400014024089
:1017200000180240001C0240083C014001480068CB
:101730007047000000000020034800680349097852
:10174000084401490860704700000020080000209C
:1017500010B50D48006840F400700B490860084659
:10176000006840F4806008600846006840F48070BB
:101770000860032000F0A2F8002000F007F800F055
:101780002BF8002010BD0000003C024070B504465C
:101790000E4800784FF47A71B1FBF0F00C490968FB
:1017A000B1FBF0F5284600F02BFC08B1012070BD1C
:1017B000102C07D200222146501E00F041F80548A7
:1017C000046001E00120F2E70020F0E708000020BB
:1017D0000C0000200400002008B500BF002000908D
:1017E0000E48006840F480400C49086008460068D4
:1017F00000F48040009000BF00BF00BF00200090B8
:10180000081F006840F08050091F08600846006803
:1018100000F08050009000BF00BF08BD4438024077
:1018200001460846002809DB00F01F0301229A4008
:1018300043099B0003F1E023C3F8002100BF704778
:101840002DE9F05F80460D461646002701F008FDA1
:10185000074639462A46334601F00700C0F1070A19
:10186000BAF1040F02D94FF0040A01E0C0F1070AEF
:10187000D14600F1040ABAF1070F02D24FF0000A74
:1018800001E0A0F1030AD4464FF0010A0AFA09FA6E
:10189000AAF1010A0AEA020A0AFA0CFA4FF0010B4D
:1018A0000BFA0CFBABF1010B0BEA030B4AEA0B043E
:1018B0002146404601F0DCFCBDE8F09F00BF00F08F
:1018C0000702064B19684FF6FF031940044B0B4300
:1018D00043EA0221014B196000BF70470CED00E0A4
:1018E0000000FA0570B504460D460CB9012070BD24
:1018F0005848006800F00700A84209D255490D7009
:101900000846006800F00700A84201D00120EEE779
:10191000207800F0020002281DD1207800F0040099
:10192000042805D14C48006840F4E0504A4908605A
:10193000207800F00800082805D14748006840F4E6
:101940006040454908604448006820F0F000A16804
:10195000084341490860207800F00100A8B360689E
:10196000012807D13C4808380068C0F34040B8B9A6
:101970000120BCE76068022802D06068032807D114
:10198000354808380068C0F3406048B90120AEE728
:10199000314808380068C0F3400008B90120A6E7C4
:1019A0002D48006820F00300616808432A49086058
:1019B000FFF7BCFE064609E0FFF7B8FE801B41F2C8
:1019C0008831884202D9032091E707E02248006865
:1019D00000F00C006168B0EB810FEDD11D4800688C
:1019E00000F00700A84209D91A490D70084600689E
:1019F00000F00700A84201D0012078E7207800F02D
:101A00000400042807D11448006820F4E050E1687D
:101A1000084311490860207800F00800082808D120
:101A20000D48006820F46040216940EAC1000A497D
:101A3000086000F03FF808490968C1F30311074A3C
:101A4000515CC8400649086006480068FFF79EFEE2
:101A500000204CE7003C0240083802408634000871
:101A60000C000020040000200148006870470000BE
:101A70000C00002000B5FFF7F7FF04490968C1F327
:101A80008221034A515CC84000BD00000838024072
:101A90009634000800B5FFF7E7FF04490968C1F371
:101AA0004231034A515CC84000BD00000838024082
:101AB000963400082DE9F047002400250026A146B1
:101AC0002548006800F00C0020B1042805D0082843
:101AD0003AD105E0DFF8849039E0DFF8849036E011
:101AE0001D48001F006800F03F041B48001F0068ED
:101AF00000F4800078B11A481749091F0968C1F33A
:101B00008811A0FB01700146224600233846FEF7EB
:101B100059FB05460EE011480F49091F0968C1F33A
:101B20008811A0FB01700146224600233846FEF7CB
:101B300049FB05460848001F0068C0F30140401CEF
:101B40004600B5FBF6F902E0DFF8109000BF00BFD9
:101B50004846BDE8F0870000083802400024F40041
:101B6000001BB700F8B504460CB90120F8BD207879
:101B700000F00100002874D0F948006800F00C0063
:101B800004280DD0F648006800F00C00082813D196
:101B9000F348001F006800F48000B0F5800F0BD1FF
:101BA000EF4808380068C0F34040002859D060680A
:101BB000002856D10120D9E700BF6068B0F5803F0A
:101BC00008D1E7480838006840F48030E449083913
:101BD00008601EE06068B0F5A02F0DD1E04808381D
:101BE000006840F48020DE49083908600846006833
:101BF00040F4803008600CE0D9480838006820F4D0
:101C00008030D749083908600846006820F48020F1
:101C1000086000BF606890B1FFF788FD054606E0E8
:101C2000FFF784FD401B642801D903209EE7CC48C0
:101C300008380068C0F340400028F1D011E0FFF7F9
:101C400075FD054606E0FFF771FD401B642801D9CC
:101C500003208BE7C24808380068C0F340400028E2
:101C6000F1D1207800F0020002285FD1BC48006862
:101C700000F00C0058B1BA48006800F00C000828C9
:101C80001CD1B748001F006800F48000B0B9B44808
:101C900008380068C0F3400020B1E068012801D096
:101CA000012063E7AE480838006820F0F800216999
:101CB00040EAC100AA490839086037E0E06800B38B
:101CC0000120A8490860FFF731FD054606E0FFF74F
:101CD0002DFD401B022801D9032047E7A048083802
:101CE0000068C0F340000028F1D09D480838006823
:101CF00020F0F800216940EAC100994908390860DC
:101D000014E0002097490860FFF710FD054606E043
:101D1000FFF70CFD401B022801D9032026E790485D
:101D200008380068C0F340000028F1D1207800F0A6
:101D3000080008282CD16069A8B101208A490860F0
:101D4000FFF7F4FC054606E0FFF7F0FC401B022815
:101D500001D903200AE782486C300068C0F34000D4
:101D60000028F1D014E000207F490860FFF7DEFC76
:101D7000054606E0FFF7DAFC401B022801D90320E4
:101D8000F4E677486C300068C0F340000028F1D1D9
:101D9000207800F00400042870D100277048383003
:101DA000006800F0805090B900BF002000906C489F
:101DB0003830006840F08050694938310860084682
:101DC000006800F08050009000BF00BF0127674806
:101DD000006800F48070B0B96448006840F4807016
:101DE00062490860FFF7A2FC054606E0FFF79EFC8B
:101DF000401B022801D90320B8E65C48006800F4C3
:101E000080700028F2D000BFA068012808D1544893
:101E10006830006840F001005149683108601DE0F9
:101E2000A06805280DD14E486830006840F00400D5
:101E30004B49683108600846006840F001000860BE
:101E40000CE047486830006820F0010044496831E0
:101E500008600846006820F00400086000BFA06821
:101E6000A8B1FFF763FC054609E0FFF75FFC401BE4
:101E700041F28831884202D9032077E626E03848CB
:101E800068300068C0F340000028EED013E0FFF790
:101E90004DFC054608E0FFF749FC401B41F2883144
:101EA000884201D9032061E62D4868300068C0F3FC
:101EB00040000028EFD1012F07D1294838300068B1
:101EC00020F0805026493831086000BFA069002802
:101ED00045D02348006800F00C0008285DD0A069B8
:101EE000022845D100201F490866FFF71FFC054660
:101EF00006E0FFF71BFC401B022801D9032035E652
:101F0000174808380068C0F340600028F1D1D4E9D0
:101F100007010843616A40EA81110122A06AC2EB0D
:101F2000500041EA00412C20005D41EA00600C496C
:101F3000091F086001200B490866FFF7F7FB0546FB
:101F400006E0FFF7F3FB401B022801D903200DE652
:101F5000034808380068C0F340600028F1D049E029
:101F60000838024000004742800E4742007000409F
:101F7000002021490866FFF7D9FB054606E0FFF778
:101F8000D5FB401B022801D90320EFE51B48006860
:101F9000C0F340600028F2D12CE0A069012800D1F4
:101FA000E4E51648001D0668A069012820D006F463
:101FB0008001E06981421BD106F03F01206A814225
:101FC00016D147F6C0703040616AB0EB811F0FD167
:101FD00006F440310122A06AC2EB5000B1EB004F81
:101FE00006D106F070612C20005DB1EB006F01D0CE
:101FF0000120BBE50020B9E500004742003802405F
:1020000070B504462546681EB0F1807F01D30120DB
:102010000FE0681E4FF0E02148610F214FF0FF30C4
:1020200001F026F900204FF0E021886107200861C7
:10203000002070BD704770B50446002520684069D7
:10204000C0F3C01594F83D00212817D1B5B100BFE9
:1020500000BF2168143151E8001F21F08000216881
:10206000143141E80002002AF3D100BF606B10B1C7
:10207000606BFFF702F8204600F0B3FE206840696D
:10208000C0F3801594F83E00222817D1B5B100BFE7
:1020900000BF2168143151E8001F21F04000216881
:1020A000143141E80002002AF3D100BFA06B10B147
:1020B000A06BFEF7E2FF204600F04DFE002070BD51
:1020C000704700002DE9F84F044620680568206835
:1020D000C668206847694FF00009CA4605F00F0935
:1020E000B9F1000F0AD105F0200038B106F0200048
:1020F00020B1204600F088FEBDE8F88FB9F1000F4E
:102100007CD007F0010018B906F49070002875D053
:1021100005F0010030B106F4807018B1206C40F079
:102120000100206405F0040030B107F0010018B18F
:10213000206C40F00200206405F0020030B107F08E
:10214000010018B1206C40F00400206405F0080084
:1021500048B106F0200010B907F0010018B1206C5A
:1021600040F008002064206C002846D005F02000D4
:1021700028B106F0200010B1204600F045FE20688E
:102180004069C0F3801A206C00F0080010B9BAF161
:10219000000F2DD0204600F0DEFD2068406900F0E1
:1021A0004000402820D100BF00BF2168143151E811
:1021B000001F21F040002168143141E80002002A8C
:1021C000F3D100BFA06B50B17548A16B0865A06B3F
:1021D000FEF7A9FF88B1A06B016D88470DE020468E
:1021E000FFF76EFF09E009E02046FFF769FF04E012
:1021F0002046FFF765FF002020647DE7206B012863
:1022000076D105F01000002872D006F010000028EA
:10221000FAD000BF0020009020680068009020687D
:102220004068009000BF00BF2068406900F0400097
:1022300040285ED1A06B006840681FFA80F8B8F1B2
:10224000000F54D0A08D404551DDA4F82E80A06B26
:10225000C069B0F5807F43D000BF00BF21680C315A
:1022600051E8001F21F4807021680C3141E8000220
:10227000002AF3D100BF00BF00BF2168143151E82C
:10228000001F21F001002168143141E80002002AFA
:10229000F3D100BF00BF00BF2168143151E8001F17
:1022A00021F040002168143141E80002002AF3D1F6
:1022B00000BF202084F83E000020206300BF00BF44
:1022C00021680C3151E8001F21F0100021680C3109
:1022D00041E80002002AF3D100BFA06BFEF7CDFE5B
:1022E000A08DE28D801A81B22046FFF7A3FE03E79E
:1022F00040E0A08DE18D401A1FFA80F8E08DC0B358
:10230000B8F1000F35D000BF00BF21680C3151E893
:10231000001F21F4907021680C3141E80002002A6E
:10232000F3D100BF00BF00BF2168143151E8001F86
:1023300021F001002168143141E80002002AF3D1A4
:1023400000BF202084F83E000020206300BF00BFB3
:1023500021680C3151E8001F21F0100021680C3178
:1023600041E80002002AF3D100BF41462046FFF7B2
:1023700061FEC1E605F0800030B106F0800018B1C2
:10238000204600F03BFFB7E605F0400030B106F014
:10239000400018B1204600F014FDADE600BFABE6EA
:1023A000BD2B000810B504460CB9012010BDA06972
:1023B00000B100E000BF94F83D0028B9002084F887
:1023C0003C00204600F028F8242084F83D002068D6
:1023D000C06820F400502168C860204600F090FDDD
:1023E0002068006920F490402168086120684069F5
:1023F00020F02A00216848612068C06840F400503D
:102400002168C86000202064202084F83D0084F802
:102410003E000020CAE7000010B586B00446142133
:1024200001A8FDF707FF3D492068884273D100BF2E
:10243000002000903A48006840F4002038490860C5
:102440000846006800F40020009000BF00BF00BFF5
:102450000020009032481038006840F004003049F5
:10246000103908600846006800F00400009000BFC2
:1024700000BF4FF4406001900220029000200390C2
:10248000032004900820059001A92648FFF754F87E
:10249000254826490860400548600021234881609E
:1024A000C1604FF480610161002141618161C161BE
:1024B00001624162FEF76CFF08B1FEF71FF900BF31
:1024C0001A48A063846300BF174830301849086079
:1024D0004FF0006048604021154881600021C160D4
:1024E0004FF480610161002141618161C16101623C
:1024F0004162FEF74DFF08B1FEF700F900BF0C483E
:102500006063846300BF002201213420FFF798F943
:102510003420FFF785F906B010BD0000004C0040E4
:102520004038024000080240406002404C01002058
:10253000AC01002070B504460D46164694F83E00E6
:10254000202816D105B10EB9012070BD00BF94F846
:102550003C00012801D10220F7E7012084F83C006B
:1025600000BF0020206332462946204600F0DEFDF1
:10257000EBE70220E9E7000038B50446134884423F
:1025800022D100BF00200090104800680068009031
:102590000E4800684068009000BF00BF19220C4937
:1025A0000A4800F01DF80B4A09490B4800F0D0F921
:1025B000094800F0BCF90749074800F081F91922E1
:1025C00003490248FFF7B6FF38BD000008010020AC
:1025D000100000203C0000202A000020704700006E
:1025E000F7B50446154694F83D00202846D10198D9
:1025F00000B10DB90120FEBD00BF94F83C000128D8
:1026000001D10220F7E7012084F83C0000BF0198C7
:102610002062A584E58400202064212084F83D0008
:102620001748616BC8631748616B08641648616B93
:10263000C8640020616B086501AE23681A1D31680B
:102640002B46606BFEF71AFF6FF0400021680860B0
:1026500000BF002084F83C0000BF00BF00BF21681D
:10266000143151E8001F41F080002168143141E825
:102670000002002AF3D100BF0020BCE70220BAE725
:10268000F12C0008492D0008D12B00087047704735
:1026900000BFFEE710B50D480D49086007204860EF
:1026A00000210B488160C1604FF480310161490114
:1026B00041610021017641768176C17601774177CB
:1026C000FEF757FB08B1FEF719F810BD0064004093
:1026D000E000002008B500BF002000900E48006810
:1026E00040F400100C4908600846006800F400102F
:1026F000009000BF00BF002202210D20FFF7A0F8CC
:102700000D20FFF78DF8002211460F20FFF798F8F3
:102710000F20FFF785F808BD3038024008B500BF2C
:10272000002000901D48006840F001001B4908602F
:102730000846006800F00100009000BF00BF00BF25
:10274000002000900846006840F008000860084635
:10275000006800F00800009000BF00BF00BF00202C
:1027600000900846006840F00400086008460068D1
:1027700000F00400009000BF00BF00BF00200090E8
:102780000846006840F0800008600846006800F0D5
:102790008000009000BF00BF08BD0000303802403C
:1027A00010B50B480B4908600B48486000210948E8
:1027B0008160C1604FF4C06101610C214161002161
:1027C0008161C161FFF7EEFD08B1FDF797FF10BD14
:1027D000004C004008010020A086010000BFFEE779
:1027E00010B52DED0A8B04462A49B1F9021001F209
:1027F0000D30FDF70BFE41EC1C0B9FED270B53EC4E
:10280000102BFDF722FD41EC1B0B9FED250B53EC2C
:10281000102BFDF78CFD41EC1A0B9FED230B53ECB5
:10282000102BFDF784FD41EC190BFDF700FE20494C
:10283000C860084690ED021AB8EE411AF0EE410A5F
:1028400090ED031AB8EE411AB0EE410A183000F0CC
:1028500099FD1748B0F9100001EE100AB8EEC11A40
:10286000F0EE410A124890ED0C1AB0EE410A4C30DD
:1028700000F088FD0E4890ED190AB0EE408ABDEEDA
:10288000C80A10EE100A01B20A48FDF781FEBDEC3D
:102890000A8B10BD2A000020000000000080764056
:1028A00000000000006888400000000000000040B8
:1028B00060000020E000002000BFFEE77047704786
:1028C0000A88A2F5806212B202804A88A2F580626C
:1028D00012B242808A88A2F5806212B28280CA88CF
:1028E000A2F5806212B2C2800A894FF4627392FB31
:1028F000F3F252B202724A8992FBF3F253B243727C
:102900008A8940F25B2392FBF3F253B28372CA8945
:102910004FF4627392FBF3F253B2C3720A8AF03A35
:1029200012B282814A8AF03A13B2C3817047417C65
:1029300009B9017C59B10021018041808180C180A9
:102940000172002242728272C2728181C28170471A
:1029500010B54B788C7843EA0423C3F30A03138041
:102960008B78DB10CC7843EA4413C3F30A0353801B
:10297000CB789B110C7943EA84034C7943EA842396
:10298000C3F30A0393804B795B108C7943EAC41339
:10299000C3F30A03D3808B791B11CC7943EA041368
:1029A000C3F30A031381CB79DB110C7A43EA4403A6
:1029B0004C7A43EA4423C3F30A0353814B7A9B10B6
:1029C0008C7A43EA8413C3F30A0393818B7A5B11F5
:1029D000CC7A43EAC403D3810B7B4C7B43EA0423C8
:1029E000C3F30A0313824B7BDB108C7B43EA441353
:1029F000C3F30A0353828B7B9B11CC7B43EA840392
:102A00000C7C43EA8423C3F30A0393820B7C5B10A0
:102A10004C7C43EAC413C3F30A03D3824B7C1B11DF
:102A20008C7C43EA0413C3F30A0313838B7CDB110E
:102A3000CC7C43EA44030C7D43EA4423C3F30A03FA
:102A400053830B7D9B104C7D43EA8413C3F30A032D
:102A500093834B7D5B118C7D43EAC403D383CB7D91
:102A6000DB091384CB7DC3F380135384CB7DC3F385
:102A7000C0034374CB7DC3F38003037410BD10B552
:102A8000FEF75AFE10BD000000B593B0302107A834
:102A9000FDF7D0FB142102A8FDF7CCFB00BF0020FE
:102AA00001902448006840F08050224908600846A0
:102AB000006800F08050019000BF00BF00BF002000
:102AC00001901D48006840F480401B49086008469A
:102AD000006800F48040019000BF00BF0120079013
:102AE0000004089002200D9041050E9108210F91DD
:102AF000A8211091022111910421129107A8FFF73A
:102B000031F808B1FDF7FAFD0F2002900220039082
:102B1000002004904FF4A05005904FF48050069090
:102B2000042102A8FEF7DEFE08B1FDF7E7FD13B0B1
:102B300000BD0000403802400070004005480068B9
:102B400040F47000034908604FF00060014980398B
:102B50000860704788ED00E038B5164800680068E6
:102B6000C0F3001008B300BF0020009011480068B7
:102B7000006800900F4800684068009000BF00BFE8
:102B80000C48FFF758FA0B48806B00684068C0F1AA
:102B90001900C4B2224608490648FFF721FD192250
:102BA00005490448FFF7C6FC00BF0248FFF78AFA50
:102BB00038BD0000080100201000002070B5054657
:102BC000AC6B0020E085E0842046FFF779FA70BD09
:102BD00070B506460025B46B20684069C0F3C01587
:102BE00094F83D00212805D125B10020E08420463D
:102BF00000F0F7F820684069C0F3801594F83E00B3
:102C0000222805D125B10020E085204600F0A3F858
:102C1000206C40F0100020642046FFF751FA70BD90
:102C200070B50546AC6B2868006800F48070002819
:102C300042D1E08500BF00BF21680C3151E8001F80
:102C400021F4807021680C3141E80002002AF3D1A0
:102C500000BF00BF00BF2168143151E8001F21F000
:102C600001002168143141E80002002AF3D100BFBD
:102C700000BF00BF2168143151E8001F21F040005F
:102C80002168143141E80002002AF3D100BF20205E
:102C900084F83E00206B01280ED100BF00BF2168E0
:102CA0000C3151E8001F21F0100021680C3141E87F
:102CB0000002002AF3D100BF206B012804D1A18DAE
:102CC0002046FFF7B7F902E02046FFF755FC70BD3C
:102CD00070B50546AC6B206B012805D1A08D41086D
:102CE0002046FFF7A7F902E02046FFF777FC70BD0A
:102CF00070B50546AC6B2868006800F48070F8B9C0
:102D00000020E08400BF00BF2168143151E8001F9B
:102D100021F080002168143141E80002002AF3D13B
:102D200000BF00BF00BF21680C3151E8001F41F017
:102D3000400021680C3141E80002002AF3D102E092
:102D40002046FFF7A3FC70BD70B50446A56B28466E
:102D5000FFF79DFC70BD00BF00BF02680C3252E857
:102D6000002F22F4907102680C3242E80013002B0D
:102D7000F3D100BF00BF00BF0268143252E8002F39
:102D800022F001010268143242E80013002BF3D153
:102D900000BF016B01290ED100BF00BF02680C32D9
:102DA00052E8002F22F0100102680C3242E80013B2
:102DB000002BF3D100BF202180F83E1000210163D9
:102DC000704710B504462068C06820F040002168B4
:102DD000C860202084F83D002046FFF757FC002003
:102DE00010BD00BF00BF02680C3252E8002F22F075
:102DF000C00102680C3242E80013002BF3D100BF7F
:102E0000202180F83D107047F8B5044694F83E0044
:102E1000222873D1A068B0F5805F0CD1206950B929
:102E20000025A66A20684068C0F308003080A06AC8
:102E3000801CA06215E0A56A0026A068B0F5805F3E
:102E400003D0A06828B9206918B9206840682870A4
:102E500004E02068406800F07F002870A06A401CF1
:102E6000A062E08D401E80B2E085002844D1206839
:102E7000C06820F020002168C8602068C06820F485
:102E800080702168C8602068406920F001002168D6
:102E90004861202084F83E00206B012826D10020C4
:102EA000206300BF00BF21680C3151E8001F21F0F2
:102EB000100021680C3141E80002002AF3D100BF64
:102EC0002068006800F0100010280AD100BF002020
:102ED000009020680068009020684068009000BF63
:102EE00000BFA18D2046FFF7A5F802E02046FFF7BE
:102EF00043FB0020F8BD01E00020FBE70220F9E7DA
:102F00002DE9F84F04462068006920F44050E1683C
:102F10000843216808612169A06808436169084382
:102F2000E169084300902068C06849F20C61884359
:102F3000009908432168C8602068406920F4407007
:102F4000A16908432168486176492068884203D016
:102F500075492068884203D1FEF79CFD814602E056
:102F6000FEF788FD8146E069B0F5004F6CD1022084
:102F70006168A0FB015003461920A9FB00700146BF
:102F80002A463846FDF71EF96421B0FBF1F04FEAFE
:102F9000001A02206168A0FB01510B461920A9FB11
:102FA00000712A463846FDF70DF983460220616814
:102FB000A0FB015003461920A9FB00712A463846A0
:102FC000FDF700F96421B0FBF1F000EBC00101EB6B
:102FD0000010ABEB8000322101EBC0006421B0FB9C
:102FE000F1F000F0F8000AEB400A02206168A0FB53
:102FF000015003461920A9FB007001462A463846B5
:10300000FDF7E0F8834602206168A0FB015003460B
:103010001920A9FB00712A463846FDF7D3F8642130
:10302000B0FBF1F000EBC00101EB0010ABEB800056
:10303000322101EBC0006421B0FBF1F000F0070089
:103040005044216888606AE004206168A0FB015058
:1030500003461920A9FB007001462A463846FDF7B1
:10306000B1F8824604206168A0FB01500346192094
:10307000A9FB007001462A463846FDF7A3F86421F3
:10308000B0FBF1F000EBC00101EB0010AAEB8000F7
:10309000322101EB00106421B0FBF1F000F0F00AE6
:1030A00004206168A0FB017003461920A9FB0051B0
:1030B0003A462846FDF786F86421B0FBF1F00AEBAA
:1030C000001A04206168A0FB01510B461920A9FBDE
:1030D00000712A463846FDF775F88346042061687A
:1030E000A0FB015003461920A9FB007001462A46A7
:1030F0003846FDF767F86421B0FBF1F000EBC00142
:1031000001EB0010ABEB8000322101EB00106421D9
:10311000B0FBF1F000F00F00504421688860BDE87A
:10312000F88F0000001001400014014077B581B015
:10313000044615460298A062A5850020206422203E
:1031400084F83E002A48A16BC8632A48A16B086432
:103150002948A16BC8640020A16B086502AE3268E3
:103160002368191D2B46A06BFEF788F900BF0020CD
:10317000009020680068009020684068009000BFC0
:1031800000BF00BF002084F83C0000BF206970B180
:1031900000BF00BF21680C3151E8001F41F480706E
:1031A00021680C3141E80002002AF3D100BF00BFC2
:1031B00000BF2168143151E8001F41F0010021686F
:1031C000143141E80002002AF3D100BF00BF00BF64
:1031D0002168143151E8001F41F04000216814318A
:1031E00041E80002002AF3D100BF002004B070BD06
:1031F000212C0008D12C0008D12B0008014691F8A1
:103200003D00212828D18868B0F5805F0BD108697E
:1032100048B90A6A1088C0F308000B685860086A49
:10322000801C086205E00B6A581C086218780B685D
:103230005860C88C401E80B2C88458B90868C068FD
:1032400020F080000B68D8600868C06840F040003B
:103250000B68D860002070470220FCE700BFFEE743
:1032600002480068C0F30220704700000CED00E047
:1032700010B5002804DB0A07130E054A135406E0B4
:103280000A07140E034A00F00F031B1FD45410BD8D
:1032900000E400E018ED00E002E008C8121F08C1D9
:1032A000002AFAD170477047002001E001C1121FC7
:1032B000002AFBD17047000000B58BB001200990B7
:1032C00000200790012008900020019002900390B8
:1032D00004900690059001A90C48FDF7D3FA0B481D
:1032E000FDF795FE02210948FDF70BFA0E200A9022
:1032F000069001A90548FDF7C5FA0448FDF787FEC9
:1033000002210248FDF7FDF90BB000BDE0000020EE
:10331000FEF71EFAFFF7B8FBFFF700FAFFF7DAF93E
:10332000FFF73EFAFFF7B6F913480068C06840F0AF
:10333000100011490968C860192210490E48FFF7AA
:10334000F9F8FFF7B9FF15E00D48FFF749FA0C4807
:10335000808841F6FF7190FBF1F0C0EB001000EBAC
:1033600040004FF4B47101EBC0000549886064204F
:10337000FEF7CEF8E8E7000008010020100000206A
:1033800060000020B0EE401A80ED091AC0ED0A0A74
:1033900090ED0B0A80ED0C0A90ED090AD0ED0A1AA7
:1033A00030EE610A80ED0B0A90ED000AD0ED0B1AA9
:1033B00020EE210A80ED030A90ED040AD0ED011AF7
:1033C00090ED0B2A01EE820A80ED040A90ED0B0AC3
:1033D000D0ED0C1A30EE610AD0ED021A20EE210A6F
:1033E00080ED050A90ED040AD0ED071AF1EE611A9E
:1033F000B4EEE10AF1EE10FA04D290ED070AB1EE54
:10340000400A0DE090ED040AD0ED071AB4EEE10A8F
:10341000F1EE10FA02DD90ED070A01E090ED040AEA
:1034200080ED040A90ED030AD0ED041A30EE210A73
:10343000D0ED051A30EE210A80ED060A90ED060A5D
:10344000D0ED081AF1EE611AB4EEE10AF1EE10FACD
:1034500004D290ED080AB1EE400A0BE090ED060AA6
:10346000B4EEC00AF1EE10FA02DD90ED060A01E0BA
:1034700090ED060A80ED060A90ED060A70470006F8
:1034800010160006101600000000000000000102E7
:1034900003040607080900000000010203040000FD
:1034A000C03400080000002010000000983200081E
:1034B000D03400081000002000060000A8320008E8
:1034C0000000000010000000010000000024F400D3
:040000050800018965
:00000001FF
