:020000040800F2
:1000000048040020A10100088B100008C10F00085F
:1000100089100008AD02000845110008000000002A
:100020000000000000000000000000008F10000829
:10003000BD020008000000008D10000891100008AB
:10004000BB010008BB010008BB010008BB010008A0
:10005000BB010008BB010008BB010008BB01000890
:10006000BB010008BB010008BB010008BB01000880
:10007000BB010008BB010008BB010008BB01000870
:10008000BB010008BB010008BB010008BB01000860
:10009000B1020008BB010008BB010008BB01000859
:1000A000BB010008BB010008BB010008BB01000840
:1000B000BB010008BB010008BB010008BB01000830
:1000C000BB010008BB010008BB010008BB01000820
:1000D000BB010008BB010008BB010008BB01000810
:1000E000BB010008BB010008BB010008BB01000800
:1000F000BB010008BB010008BB010008BB010008F0
:10010000BB010008BB010008BB010008BB010008DF
:10011000BB010008BB010008BB010008BB010008CF
:10012000BB010008BB010008BB010008BB010008BF
:10013000BB010008BB010008BB010008BB010008AF
:10014000BB010008BB010008BB010008BB0100089F
:10015000BB010008BB010008BB010008BB0100088F
:10016000BB010008BB010008BB010008BB0100087F
:10017000BB010008BB010008BB0100080000000033
:10018000BB010008BB010008DFF810D000F07CF8CC
:100190000048004785110008AFF3008048040020A4
:1001A0000648804706480047FEE7FEE7FEE7FEE711
:1001B000FEE7FEE7FEE7FEE7FEE7FEE7291100089F
:1001C000890100082DE9F05F0546002092469B4614
:1001D00088460646814640241BE02846414647465D
:1001E000224600F041F853465A46C01A914110D3B6
:1001F00011461846224600F028F82D1A67EB010830
:100200004F4622460120002100F01FF817EB00099D
:100210004E41201EA4F10104DFDC484631462A4647
:100220004346BDE8F09FD2B201E000F8012B491E21
:10023000FBD270470022F6E710B513460A46044683
:100240001946FFF7F0FF204610BD202A04DB203AB4
:1002500000FA02F1002070479140C2F1200320FA19
:1002600003F3194390407047202A04DB203A21FA17
:1002700002F00021704721FA02F3D040C2F12002BF
:100280009140084319467047064C074D06E0E06868
:1002900040F0010394E8070098471034AC42F6D3CD
:1002A000FFF776FFA8110008C8110008FEE700005C
:1002B000014800F07BB8000010000020704772B6C3
:1002C000FEE7704730B590F82040012C05D0022C95
:1002D00003D0416A41F480215DE00468002955D0D3
:1002E0002469A40754D04FF4D874056804EB0114B2
:1002F0002D5915F00405956005682D594ED0ED086F
:10030000556005682C5904F00204D4604FF4DA7487
:10031000056804EB01142D5905F00F0515610568FA
:100320002D59C5F30725956105682C59240C546196
:100330004FF4DC72046802EB0112A4581C700468CC
:10034000A458240A5C700468A458240C9C700468A7
:10035000A258120EDA704FF4DE72046802EB01123A
:10036000A4581C710468A458240A5C710468A45839
:10037000240C9C710468A258120EDA71006881B1D5
:10038000016941F020010161002030BDE468A8E767
:10039000416A41F400114162012030BD6D0D1560CC
:1003A000AFE7C16841F02001C160EDE72DE9F05FE2
:1003B0000546006800244669D0F804908768D0F8A4
:1003C0000CB0D0F810A0D0F81880F10748D0F90789
:1003D00014D001218160B80703D5284600F0DAF96E
:1003E0000CE0780702D54FF4006407E0380702D527
:1003F0004FF4805402E0284600F0CBF9F80516D5FA
:1004000029684FF480708860B80503D5284600F04D
:10041000C3F90CE0780502D544F4005407E0380530
:1004200002D544F4804402E0284600F0B4F9F80311
:1004300016D529684FF480308860B80303D5284664
:1004400000F0ACF90CE0780302D544F4004407E076
:10045000380302D544F4803402E0284600F09DF9C8
:10046000300707D55FEACB6004D52968102044F433
:100470000074C86070074FF0080707D55FEA0B707B
:1004800004D52868C760284600F058F9B00706D59B
:100490002868C068800702D0284600F051F970062D
:1004A00007D55FEACA6004D52968102044F4806447
:1004B0000861B00607D55FEA0A7004D528680761AD
:1004C000284600F063F9F00606D528680069800721
:1004D00002D0284600F05BF9B00308D55FEAC96096
:1004E00005D5296810204860284600F051F9F0032E
:1004F00007D55FEA097004D528684760284600F0F0
:100500004EF9300446D55FEA497040D5F00504D570
:100510005FEAC87001D044F00104B00504D55FEA79
:10052000887001D544F00204700504D55FEA487074
:1005300001D544F00404300529D518F0700F26D0F9
:1005400008F07000402815D006DC102809D02028BB
:100550000AD0302816D10AE050280ED0602811D1D8
:100560000EE044F008040DE044F010040AE044F00A
:10057000200407E044F0400404E044F0800401E07B
:1005800044F480742868816921F0700181612968D0
:1005900004204860002C05D0686A20436862284621
:1005A000FFF78FFEBDE8F09F70B5040003D094F80C
:1005B000200010B104E0012070BD204600F082F858
:1005C0002068016821F00201016000F0CBF90546C6
:1005D000052604E000F0C6F9401B0A2811D820685F
:1005E00040688007F6D42068016841F0010101608D
:1005F00000F0B8F905460BE000F0B4F9401B0A28FA
:1006000006D9606A40F40030606284F82060D2E766
:1006100020684068C007EFD0207E0128206801686C
:100620003DD021F080010160607E012820680168D2
:1006300038D021F040010160A07E012820680168C7
:1006400033D021F020010160E07E0128206801689C
:100650002ED041F010010160207F01282068016840
:1006600029D021F008010160607F0128206801681D
:1006700024D021F004010160D4E902010843D4E947
:100680000412114308436168491E08432168C86188
:1006900000206062012084F82000002070BD41F03D
:1006A0008001C0E741F04001C5E741F02001CAE701
:1006B00021F01001CFE741F00801D4E741F0040137
:1006C000D9E7000010B586B0044614216846FFF74C
:1006D000B1FD17492068884227D1164800210268D9
:1006E00042F000720260006800F00070059011484E
:1006F0001038026842F0080202600068022200F02E
:10070000080005900320CDE90210CDE90002092080
:1007100004906946084800F043F80022114614206E
:1007200000F08EF9142000F07DF906B010BD000035
:100730000064004040380240000C02407047000056
:1007400000B5104A016889B0914219D107AB6A46D9
:100750000021FFF7B7FD0098A0F5007005380FD114
:10076000BDF81C0041BA08488180BDF81E1049BA86
:10077000C180BDF8201049BA01819DF82210817214
:1007800009B000BD00640040380000207047704789
:1007900070477047704770477047704770477047A1
:1007A0002DE9F84F00224FF0010803254FF00F0EFE
:1007B0000B6808FA02F42340A3426ED14E68012E62
:1007C00005D0022E03D0112E01D0122E12D1866830
:1007D0004FEA420C05FA0CF7BE43CF6807FA0CF754
:1007E000374387604668A6430C79C4F300149440ED
:1007F00034434460C668570005FA07FC8C6826EA53
:100800000C06BC403443C4604C68022C01D0122C4E
:1008100013D1D40800EB8404A346D4F820905407E5
:100820004FEAD46A0EFA0AF629EA06090E6906FAB0
:100830000AF646EA0906CBF8206006680C7926EA33
:100840000C0604F00304BC40344304604C68E4002C
:1008500065D5364C266846F480462660246822F02A
:10086000030604F480440094314C3444A446D4F884
:1008700008489607370F0EFA07F6B4432D4EB042DC
:1008800001D1002624E02C4EB04201D101261FE008
:100890002A4EB04202D102261AE040E0284EB04271
:1008A00001D1032614E0274EB04201D104260FE007
:1008B000254EB04201D105260AE0244EB04201D1B6
:1008C000062605E0224EB04201D1072600E00826A8
:1008D000BE402643CCF808681E4E34684F689C43DF
:1008E000FF0300D51C4334601A4C241D26684F6852
:1008F0009E43BF0300D51E432660164E083634685B
:100900004F689C43FF0200D51C433460114E0C36E7
:1009100034684F689C43BF0200D51C433460521CAE
:10092000102AFFF445AFBDE8F88F000044380240BC
:100930000030014000000240000402400008024074
:10094000000C024000100240001402400018024057
:10095000001C0240003C01400AB18161704709045B
:10096000FBE700000148806870470000000000209D
:1009700002488168027811448160704700000020BD
:100980000B4810B5016841F400710160016841F441
:1009900080610160016841F480710160032000F012
:1009A0006FF8002000F006F800F024F8002010BDD9
:1009B000003C024070B50D4D04464FF47A71287822
:1009C000B1FBF0F00A490968B1FBF0F000F0E4FA7D
:1009D00048B9102C07D200222146501E00F030F8F2
:1009E00000206C6070BD012070BD00000000002080
:1009F0000C0000200A4808B5016841F480410160FC
:100A0000006800F4804000900548001F016841F034
:100A100080510160006800F08050009008BD000027
:100A200044380240002809DB00F01F0201219140F8
:100A30004009800000F1E020C0F80011704700007C
:100A4000F0B40E4B1B680C46C3F30223C3F1070539
:100A5000042D00D90425191D072901D2002300E027
:100A6000DB1E012606FA05F1491E214099409E40F1
:100A7000761E16403143F0BC00F065BB0CED00E083
:100A8000064900F0070208684FF6FF03184040EAE5
:100A90000220034A10430860704700000CED00E09C
:100AA0000000FA052DE9F0470E46050065D0DFF895
:100AB0001481D8F80000F7B200F00F00B04207D25E
:100AC00088F80070D8F8000000F00F00B04254D150
:100AD00028683D4C810712D5400703D5206840F4B3
:100AE000E05020602878000703D5206840F460407B
:100AF00020602068A96820F0F00008432060287872
:100B0000C0072DD0304968680839012812D0022862
:100B100013D0032811D00968890700292DDA21682C
:100B200021F0030101432160FFF71CFF814641F2E0
:100B3000883A0EE009688903EFE709688901ECE764
:100B4000FFF710FFA0EB0901514502D90320BDE8D2
:100B5000F0872068696800F00C00B0EB810FEFD1DE
:100B6000D8F80010404601F00F01B14207D90770D4
:100B7000006800F00F00B04201D00120E7E72878BC
:100B8000400705D52068E96820F4E050084320605C
:100B90002878000706D52068296920F4604040EADB
:100BA000C100206000F018F82168084AC1F3031161
:100BB000515CC8400649086006480068FFF7FAFE25
:100BC0000020C4E7003C02400838024096110008AB
:100BD0000C00002004000020154810B5006810F03B
:100BE0000C02144813D01449042A0FD0082A0ED13D
:100BF0000F4C241F2268236802F03F025B0207D5D6
:100C00002068C0F38810A0FB010106E0084610BD73
:100C10002168C1F38811A1FB00010023FFF7D2FA7C
:100C20002168C1F30141491C4900B0FBF1F010BD3E
:100C3000083802400024F40040787D012DE9F84F87
:100C400004006ED02078DFF83C93C007A9F10405BA
:100C50004AD009F104000168C1F38101012908D0DB
:100C60000068C0F3810002280AD1D9F800004002D0
:100C700006D52868800337D560680028E1D033E0C6
:100C80006068B0F5803F10D0B0F5A02F286810D074
:100C900020F480302860286820F480202860606874
:100CA000A8B1FFF75FFE06460DE0286840F48030EB
:100CB000F4E740F480202860F7E700BFFFF752FE1A
:100CC000801B642873D828688003F7D50CE0FFF7F1
:100CD00049FE064605E000BFFFF744FE801B64287E
:100CE000F0D828688003F7D42078DFF89C8280074A
:100CF0004FF0000A3ED5A348001D016811F00C0F0B
:100D000008D00068C0F3810002280BD1D9F8000098
:100D1000400207D42868800716D5E068012800D172
:100D200012E02BE1E068B8B10120C8F80000FFF73D
:100D300019FE064605E000BFFFF714FE801B0228DF
:100D4000C0D828688007F7D52868216920F0F80006
:100D500040EAC10028600DE0C8F800A0FFF702FEDD
:100D6000064604E0FFF7FEFD801B02281FD8286816
:100D70008007F7D42078000722D5824E8348616926
:100D8000703671B101210160FFF7ECFD074604E008
:100D9000FFF7E8FDC01B022809D830688007F7D5A7
:100DA0000EE0C0F800A0FFF7DDFD074605E082E099
:100DB000FFF7D8FDC01B02287DD830688007F7D424
:100DC0002078400768D5DFF8BCB100270BF13C0B59
:100DD000DBF80000C0000BD4DBF8001041F08051BC
:100DE000CBF80010DBF80000012700F080500090E5
:100DF000674E3068C00510D4306840F480703060B1
:100E0000FFF7B0FD009005E0FFF7ACFD0099401A38
:100E1000022850D83068C005F6D55A4EA0686C3606
:100E200001280FD00528306810D020F00100306074
:100E3000306820F004003060A068B8B1FFF792FD80
:100E400000900FE0306840F00100F4E740F004004B
:100E50003060F7E7FFF786FD0099411A41F28830CC
:100E6000814266D830688007F4D50EE0FFF77AFD3E
:100E7000009007E0FFF776FD0099411A41F28830B3
:100E8000814256D830688007F4D42FB1DBF80010C7
:100E900021F08051CBF80010A069C8B33949091D71
:100EA0000968C1F3810102294AD00228504607D0BF
:100EB000C8F8600000E03CE0FFF754FD04463BE06A
:100EC0004746C8F86000FFF74DFD064605E000BF45
:100ED000FFF748FD801B02282BD828688001F7D433
:100EE000D4E907010843A16A2A4A490802EB0141F3
:100EF000626A41EA8211084394F82C1040EA0161C9
:100F0000C9F8001001203866FFF72CFD044606E002
:100F100036E000BFFFF726FD001B022809D828682D
:100F20008001F7D52CE000BFFFF71CFD001B022855
:100F300002D90320BDE8F88F28688001F4D41FE0AF
:100F40000128F7D0D9F80000E26900F4800191424D
:100F500014D1226A00F03F0191420FD147F6C071CF
:100F6000626A0140914209D1A26A00F44031914283
:100F700004D1E16A00F07060884201D00120D9E715
:100F80000020D7E70438024000004742800E474265
:100F9000007000400000FFFF10B5401EB0F1807FE0
:100FA00001D3012010BD4FF0E02460610F216017D4
:100FB00000F0C9F80020A06107202061002010BDCA
:100FC000FEE700000F4810B50D49016007214160A0
:100FD00000214FF480328160C0E903125201426166
:100FE000017641768176C17601774177FFF7DCFAA9
:100FF000002803D0BDE81040FFF761B910BD000024
:10100000006400401000002070B586B014216846CE
:10101000FFF710F91A480024016841F0010101604E
:10102000016801F001010591016841F008010160CA
:10103000016801F008010591016841F004010160B7
:10104000016801F004010591016841F0800101602F
:1010500000680C4E00F080004FF4E055059000222F
:1010600029463046FFF778FC01200095CDE90104C0
:10107000694630460394FFF793FB06B070BD00004D
:1010800030380240001C0240FEE7FEE77047704720
:10109000FFF76EBC30B593B030216846FFF7CAF851
:1010A00014210CA8FFF7C6F81D480025016841F07F
:1010B00080510160006800F080501190194801686B
:1010C00041F4804101600068022400F480401190E6
:1010D0000120039010200490009406940820CDE98C
:1010E0000750A820CDE9090404200B906846FFF7BB
:1010F000A5FD08B172B6FEE70CA90F2081E831000A
:101100004FF4A0500F904FF48050109005210CA880
:10111000FFF7C8FC002801D072B6FEE713B030BD5F
:1011200040380240007000400548016841F47001F9
:10113000016003494FF0006080390860704700008B
:1011400088ED00E0FEE70907090E002804DB00F146
:10115000E02080F80014704700F00F0000F1E0205C
:1011600080F8141D704702E008C8121F08C1002A49
:10117000FAD170477047002001E001C1121F002A18
:10118000FBD17047FFF7FCFBFFF784FFFFF73CFF45
:10119000FFF718FFFEE7000000000000000001025A
:1011A0000304060708090000C81100080000002019
:1011B0001000000066110008D8110008100000207F
:1011C0003804000076110008010000001000000043
:0811D000000000000024F400FF
:040000050800018965
:00000001FF
