:020000040800F2
:1000000078060020A1010008171D0008111900083A
:10001000151D0008D5030008752100080000000028
:100020000000000000000000000000001B1D000890
:10003000D703000800000000191D00081D1D00085E
:10004000BB010008BB010008BB010008BB010008A0
:10005000BB010008BB010008BB010008BB01000890
:10006000BB010008BB010008BB010008BB01000880
:10007000BB010008BB010008BB010008BB01000870
:10008000BB010008BB010008BB010008BB01000860
:10009000BB010008BB010008BB010008BB01000850
:1000A000BB010008BB010008BB010008BB01000840
:1000B000C11D0008BB010008BB010008BB0100080E
:1000C000BB010008BB010008BB010008BB01000820
:1000D000BB010008BB010008BB010008BB01000810
:1000E000BB010008BB010008BB010008BB01000800
:1000F000BB010008BB010008BB010008BB010008F0
:10010000BB010008BB010008BB010008BB010008DF
:10011000BB010008BB010008BB010008BB010008CF
:10012000BB010008BB010008BB010008BB010008BF
:10013000BB010008BB010008BB010008BB010008AF
:10014000BB010008BB010008BB010008BB0100089F
:10015000BB010008BB010008BB010008BB0100088F
:10016000BB010008BB010008BB010008BB0100087F
:10017000BB010008BB010008BB0100080000000033
:10018000BB010008BB010008DFF810D000F07CF8CC
:1001900000480047B5210008AFF300807806002032
:1001A0000648804706480047FEE7FEE7FEE7FEE711
:1001B000FEE7FEE7FEE7FEE7FEE7FEE7A51D000817
:1001C000890100082DE9F05F0546002092469B4614
:1001D00088460646814640241BE02846414647465D
:1001E000224600F041F853465A46C01A914110D3B6
:1001F00011461846224600F028F82D1A67EB010830
:100200004F4622460120002100F01FF817EB00099D
:100210004E41201EA4F10104DFDC484631462A4647
:100220004346BDE8F09FD2B201E000F8012B491E21
:10023000FBD270470022F6E710B513460A46044683
:100240001946FFF7F0FF204610BD202A04DB203AB4
:1002500000FA02F1002070479140C2F1200320FA19
:1002600003F3194390407047202A04DB203A21FA17
:1002700002F00021704721FA02F3D040C2F12002BF
:100280009140084319467047064C074D06E0E06868
:1002900040F0010394E8070098471034AC42F6D3CD
:1002A000FFF776FF0C2200082C220008464910B503
:1002B0004A6822F440324A604A6843681A434A60F6
:1002C00001684A6822F480724A6001684A680369DA
:1002D00042EA03224A6001684A6822F040724A609A
:1002E00001684A6883681A434A6001688A6822F490
:1002F00000628A6001688A68C3681A438A60816AFA
:100300006FF07062D14201688A6822F070628A6080
:1003100001688A680CD0836A1A438A6001688A6817
:1003200022F040528A6001688A68C36A1A4301E079
:1003300022F040528A6001688A6822F002028A60D4
:1003400001688A68037E42EA43028A6090F82010BE
:10035000002901684A680FD042F400624A600168CF
:100360004A6822F460424A6001684A68174C436A4E
:1003700004EB43331A4301E022F400624A6001684F
:10038000CA6A22F47002CA620168CA6A838B104C7E
:1003900004EB03531A43CA6201688A6822F40072AC
:1003A0008A6001688A6890F8303042EA43228A60A5
:1003B00001688A6822F480628A6001688A684069FC
:1003C00042EA8020886010BD0023014000E0FFFF6A
:1003D0000000F0FFFEE770477047000078B500248A
:1003E000009490F83C20012A19D0012280F83C208A
:1003F0000A6807230568092A13D9EE680A3A02EB4E
:10040000420293409E43EE600B788A680A3B03EBFE
:1004100043039A400368DD682A43DA6010E0022053
:1004200078BD2E6902EB420293409E432E610B7809
:100430008A6803EB43039A4003681D692A431A61E3
:100440004A681F23072A13D205686E6B521E02EBFF
:10045000820293409E436E630B790A885B1E92B2C0
:1004600003EB83039A4003685D6B2A435A6327E0DA
:1004700005680D2A12D22E6BD21F02EB8202934026
:100480009E432E630B790A88DB1F92B203EB830332
:100490009A4003681D6B2A431A6311E0EE6A0D3A15
:1004A00002EB820293409E43EE620B790A880D3B79
:1004B00092B203EB83039A400368DD6A2A43DA624F
:1004C000164B0568144A9D4206D10D68122D03D1C2
:1004D000556845F48005556005689D4218D10B6844
:1004E000102B01D0112B13D1536843F40003536038
:1004F000096810290CD10A490A4A0968B1FBF2F1CE
:1005000001EB8101490000E0491E00910029FBD167
:1005100080F83C40002078BD0023014000200140CD
:100520001000002040420F0070B504004FF000059D
:1005300003D0206C002610B107E0012070BD2046DA
:1005400000F01CF8666484F83C60206CC00610D48F
:10055000206C20F4885040F0020020642046FFF711
:10056000A5FE6664206C20F0020040F001002064CB
:1005700000E0012584F83C60284670BD10B586B0C7
:10058000044614216846FFF755FE11492068884249
:100590001CD110480021026842F480720260006899
:1005A00000F4807005900B481438026842F0010294
:1005B0000260006800F00100059001200090032017
:1005C000CDE901016946044800F0CCF806B010BD41
:1005D00000200140443802400000024070B5040091
:1005E00003D094F8200010B104E0012070BD204633
:1005F00000F082F82068016821F00201016000F03B
:1006000099F90546052604E000F094F9401B0A28F4
:1006100011D8206840688007F6D42068016841F04E
:100620000101016000F086F905460BE000F082F957
:10063000401B0A2806D9606A40F40030606284F8E2
:100640002060D2E720684068C007EFD0207E0128F4
:10065000206801683DD021F080010160607E0128A2
:100660002068016838D021F040010160A07E012897
:100670002068016833D021F020010160E07E01286C
:10068000206801682ED041F010010160207F012810
:100690002068016829D021F008010160607F0128ED
:1006A0002068016824D021F004010160D4E902012E
:1006B0000843D4E90412114308436168491E084302
:1006C0002168C86100206062012084F820000020B9
:1006D00070BD41F08001C0E741F04001C5E741F045
:1006E0002001CAE721F01001CFE741F00801D4E76B
:1006F00041F00401D9E7000010B586B0044614218A
:100700006846FFF797FD14492068884221D11348B5
:100710000021026842F000720260006800F0007080
:1007200005900E481038026842F00102026000682D
:1007300000F0010005904FF4C05000900220CDE978
:10074000010103200390092004906946044800F049
:1007500009F806B010BD00000064004040380240B7
:10076000000002402DE9F84F00224FF00108032558
:100770004FF00F0E0B6808FA02F42340A3426ED12B
:100780004E68012E05D0022E03D0112E01D0122E5C
:1007900012D186684FEA420C05FA0CF7BE43CF68C7
:1007A00007FA0CF7374387604668A6430C79C4F311
:1007B0000014944034434460C668570005FA07FCAF
:1007C0008C6826EA0C06BC403443C4604C68022C9A
:1007D00001D0122C13D1D40800EB8404A346D4F822
:1007E000209054074FEAD46A0EFA0AF629EA06095D
:1007F0000E6906FA0AF646EA0906CBF82060066892
:100800000C7926EA0C0604F00304BC40344304606F
:100810004C68E40065D5364C266846F48046266070
:10082000246822F0030604F480440094314C3444DC
:10083000A446D4F808489607370F0EFA07F6B443D3
:100840002D4EB04201D1002624E02C4EB04201D101
:1008500001261FE02A4EB04202D102261AE040E0F3
:10086000284EB04201D1032614E0274EB04201D1F8
:1008700004260FE0254EB04201D105260AE0244EA1
:10088000B04201D1062605E0224EB04201D1072632
:1008900000E00826BE402643CCF808681E4E3468A7
:1008A0004F689C43FF0300D51C4334601A4C241D41
:1008B00026684F689E43BF0300D51E432660164E30
:1008C000083634684F689C43FF0200D51C433460EF
:1008D000114E0C3634684F689C43BF0200D51C4350
:1008E0003460521C102AFFF445AFBDE8F88F0000B9
:1008F0004438024000300140000002400004024041
:1009000000080240000C02400010024000140240A7
:1009100000180240001C0240003C0140426931EADC
:10092000020200D10904816170470AB181617047F8
:100930000904FBE7014880687047000004000020BC
:1009400070B5040025D094F83D00002520B984F846
:100950003C50204600F0B8F8242084F83D00206880
:10096000016821F0010101602068016841F4004143
:1009700001602068016821F40041016000F00EFA76
:100980004D4A6168914201D84C4900E04C49884287
:1009900001D2012070BD4B492368B0FBF1F15E68C4
:1009A00026F03F060E435E606368934206D94FF41B
:1009B000967359434FF47A73B1FBF3F12368491CE2
:1009C0001E6A26F03F06314319626168914210D8D1
:1009D0004900401EB0FBF1F2521CC2F30B02042A84
:1009E00001D2042022E0B0FBF1F0401CC0F30B0068
:1009F0001CE0A268F2B301EBC10303EB0116431E36
:100A0000B3FBF6F35B1C43F480431B0549D092B360
:100A100001EBC10202EB0111401EB0FBF1F0401CE2
:100A2000C0F30B0040F4804040F400402168CA69E4
:100A30004CF6FF739A431043C861D4E90710014391
:100A40002068026822F0C00211430160D4E903016A
:100A500001432068826848F2FF339A431143816062
:100A6000D4E9050108432168CA6822F0FF02104357
:100A7000C86001E00EE016E02068016841F0010165
:100A800001602564202084F83D00256384F83E50F1
:100A9000002070BD01EB4106431EB3FBF6F35B1C67
:100AA000B3E70120C2E701EB4101401EB0FBF1F0CA
:100AB000401CC0F30B00B7E7A086010080841E0035
:100AC00000093D0040420F0010B586B004461421D5
:100AD0006846FFF7AFFB14492068884221D11348CC
:100AE000016841F0020101600068694600F00200FF
:100AF00005904FF4C07000901220019001200290E8
:100B000003200390042004900948FFF72BFE0748B8
:100B10001030016841F400110160006800F4001019
:100B2000059006B010BD000000540040303802406F
:100B300000040240024881680278114481607047D5
:100B4000040000200B4810B5016841F400710160F9
:100B5000016841F480610160016841F480710160C5
:100B6000032000F06FF8002000F006F800F024F8F1
:100B7000002010BD003C024070B50D4D04464FF4FE
:100B80007A712878B1FBF0F00A490968B1FBF0F0FE
:100B900000F08AFB48B9102C07D200222146501ED3
:100BA00000F030F800206C6070BD012070BD0000C6
:100BB00004000020100000200A4808B5016841F434
:100BC00080410160006800F4804000900548001FEB
:100BD000016841F080510160006800F08050009091
:100BE00008BD000044380240002809DB00F01F0265
:100BF000012191404009800000F1E020C0F800117F
:100C000070470000F0B40E4B1B680C46C3F3022380
:100C1000C3F10705042D00D90425191D072901D2A8
:100C2000002300E0DB1E012606FA05F1491E2140E3
:100C300099409E40761E16403143F0BC01F09BBAAD
:100C40000CED00E0064900F0070208684FF6FF03CC
:100C5000184040EA0220034A104308607047000031
:100C60000CED00E00000FA052DE9F0470E46050006
:100C700065D0DFF81481D8F80000F7B200F00F005B
:100C8000B04207D288F80070D8F8000000F00F00DA
:100C9000B04254D128683D4C810712D5400703D596
:100CA000206840F4E05020602878000703D52068D1
:100CB00040F4604020602068A96820F0F0000843FC
:100CC00020602878C0072DD030496868083901288D
:100CD00012D0022813D0032811D0096889070029EF
:100CE0002DDA216821F0030101432160FFF722FE84
:100CF000814641F2883A0EE009688903EFE7096806
:100D00008901ECE7FFF716FEA0EB0901514502D976
:100D10000320BDE8F0872068696800F00C00B0EBA4
:100D2000810FEFD1D8F80010404601F00F01B14219
:100D300007D90770006800F00F00B04201D0012011
:100D4000E7E72878400705D52068E96820F4E050F7
:100D5000084320602878000706D52068296920F418
:100D6000604040EAC100206000F038F82168084A7D
:100D7000C1F30311515CC840064908600648006889
:100D8000FFF7FAFE0020C4E7003C024008380240AA
:100D9000F421000810000020080000200448054944
:100DA00000680968044AC1F38221515CC840704759
:100DB00010000020083802400422000804480549B9
:100DC00000680968044AC1F34231515CC840704769
:100DD000100000200838024004220008154810B511
:100DE000006810F00C02144813D04110042A0FD0F0
:100DF000082A0ED10F4C241F2268236802F03F02FC
:100E00005B0207D52068C0F38810A0FB010106E053
:100E1000084610BD2168C1F38811A1FB0001002321
:100E2000FFF7D0F92168C1F30141491C4900B0FB2B
:100E3000F1F010BD083802400024F4002DE9F84F0D
:100E400004006ED02078DFF83C93C007A9F10405B8
:100E50004AD009F104000168C1F38101012908D0D9
:100E60000068C0F3810002280AD1D9F800004002CE
:100E700006D52868800337D560680028E1D033E0C4
:100E80006068B0F5803F10D0B0F5A02F286810D072
:100E900020F480302860286820F480202860606872
:100EA000A8B1FFF747FD06460DE0286840F4803002
:100EB000F4E740F480202860F7E700BFFFF73AFD31
:100EC000801B642873D828688003F7D50CE0FFF7EF
:100ED00031FD064605E000BFFFF72CFD801B6428AE
:100EE000F0D828688003F7D42078DFF89C82800748
:100EF0004FF0000A3ED5A348001D016811F00C0F09
:100F000008D00068C0F3810002280BD1D9F8000096
:100F1000400207D42868800716D5E068012800D170
:100F200012E02BE1E068B8B10120C8F80000FFF73B
:100F300001FD064605E000BFFFF7FCFC801B022810
:100F4000C0D828688007F7D52868216920F0F80004
:100F500040EAC10028600DE0C8F800A0FFF7EAFCF5
:100F6000064604E0FFF7E6FC801B02281FD828682D
:100F70008007F7D42078000722D5824E8348616924
:100F8000703671B101210160FFF7D4FC074604E01F
:100F9000FFF7D0FCC01B022809D830688007F7D5BE
:100FA0000EE0C0F800A0FFF7C5FC074605E082E0B0
:100FB000FFF7C0FCC01B02287DD830688007F7D43B
:100FC0002078400768D5DFF8BCB100270BF13C0B57
:100FD000DBF80000C0000BD4DBF8001041F08051BA
:100FE000CBF80010DBF80000012700F080500090E3
:100FF000674E3068C00510D4306840F480703060AF
:10100000FFF798FC009005E0FFF794FC0099401A68
:10101000022850D83068C005F6D55A4EA0686C3604
:1010200001280FD00528306810D020F00100306072
:10103000306820F004003060A068B8B1FFF77AFC97
:1010400000900FE0306840F00100F4E740F0040049
:101050003060F7E7FFF76EFC0099411A41F28830E3
:10106000814266D830688007F4D50EE0FFF762FC55
:10107000009007E0FFF75EFC0099411A41F28830CA
:10108000814256D830688007F4D42FB1DBF80010C5
:1010900021F08051CBF80010A069C8B33949091D6F
:1010A0000968C1F3810102294AD00228504607D0BD
:1010B000C8F8600000E03CE0FFF73CFC04463BE081
:1010C0004746C8F86000FFF735FC064605E000BF5C
:1010D000FFF730FC801B02282BD828688001F7D44A
:1010E000D4E907010843A16A2A4A490802EB0141F1
:1010F000626A41EA8211084394F82C1040EA0161C7
:10110000C9F8001001203866FFF714FC044606E019
:1011100036E000BFFFF70EFC001B022809D8286844
:101120008001F7D52CE000BFFFF704FC001B02286C
:1011300002D90320BDE8F88F28688001F4D41FE0AD
:101140000128F7D0D9F80000E26900F4800191424B
:1011500014D1226A00F03F0191420FD147F6C071CD
:10116000626A0140914209D1A26A00F44031914281
:1011700004D1E16A00F07060884201D00120D9E713
:101180000020D7E70438024000004742800E474263
:10119000007000400000FFFF70B5040005D000257E
:1011A000A56294F8510010B106E0012070BD84F8EA
:1011B0005050204600F030F8022084F8510020689A
:1011C000016821F040010160D4E901010843D4E93C
:1011D00003121143084361690843218B01F4007134
:1011E0000843E1690843216A0843A16A084321686A
:1011F0000860A069042101EA1040616A084321687F
:1012000048602068C16921F40061C1616565012001
:1012100084F85100002070BDF0B587B00446142159
:101220006846FFF707F81C492068884232D11B48FE
:101230000024016841F480510160006800F480508E
:10124000059016481438016841F0010101600168F9
:1012500001F001010591016841F00201016000689F
:10126000022500F0020005902020CDE9000502AA29
:101270000326052782E8D00069460948FFF772FA7D
:101280003020CDE9000502AA694682E8D000054871
:10129000FFF768FA07B0F0BD003001404438024063
:1012A000000002400004024010B5401EB0F1807FF3
:1012B00001D3012010BD4FF0E02460610F216017C1
:1012C00000F059FF0020A06107202061002010BD20
:1012D0007047704770B590F83C20012A32D0012445
:1012E00080F83C40022280F83D2003685A689D68DF
:1012F00022F070060A6832435A60134B02689A4221
:1013000014D0B2F1804F11D0104B9A420ED0104B36
:101310009A420BD00F4B9A4208D00F4B9A4205D0FD
:101320000E4B9A4202D00E4B9A4204D1496825F0E6
:1013300080031943916080F83D40002180F83C1003
:10134000084670BD022070BD00000140000400404E
:1013500000080040000C0040000401400040014033
:101360000018004010B5040003D094F83D0010B1FF
:1013700007E0012010BD002084F83C00204600F06A
:101380000DF8022084F83D00211D206800F01EFDAC
:10139000012084F83D00002010BD000008B5016860
:1013A0001B48B1F1804F0AD01A4A914219D1016805
:1013B00041F002010160006800F002001BE00168DA
:1013C00041F0010101600068002200F0010000907E
:1013D00001211C20FFF716FCBDE808401C20FFF788
:1013E00003BC0D4A914208D1016841F0040101603B
:1013F000006800F00400009008BD084A9142FBD14B
:10140000016841F480710160006800F48070F2E7C7
:101410004038024000040040000800400020004026
:1014200070B5044690F83C00012817D0012584F8D7
:101430003C50022084F83D002068826822F0770248
:1014400022F47F4282600868502830D00DDC2028CA
:101450004DD005DC98B310283BD148E0022070BD88
:10146000302844D0402834D139E0602828D0702872
:1014700006D0B0F5805F2CD0B0F5005F29D10AE02E
:10148000CB68D1E90121206800F011FD2068816856
:1014900041F0770109E0CB68D1E90121206800F033
:1014A00006FD2068816841F48041816011E0CA68CE
:1014B0004968206800F0D0FD5021206807E016E060
:1014C000CA684968206800F0D8FD6021206800F0F3
:1014D000F8FC84F83D50002084F83C0070BDCA68D8
:1014E0004968206800F0B8FD40212068EFE72268D5
:1014F00001461046EBE7704770B504460068016985
:101500004FF00005C943890715D4C168C94389074D
:1015100011D4E91E016101202077206880698007CD
:10152000204602D0FFF7E7FF04E000F0D9F820469C
:1015300000F05BF9257720680169C943490717D492
:10154000C168C943490713D46FF004010161022047
:1015500020772068806910F4407F204602D0FFF792
:10156000CAFF04E000F0BCF8204600F03EF9257701
:1015700020680169C943090716D4C168C94309072E
:1015800012D46FF008010161042020772068C0693F
:101590008007204602D0FFF7AEFF04E000F0A0F87D
:1015A000204600F022F9257720680169C943C90661
:1015B00017D4C168C943C90613D46FF01001016183
:1015C000082020772068C06910F4407F204602D0B0
:1015D000FFF791FF04E000F083F8204600F005F9E2
:1015E000257720680169C943C90708D1C168C94383
:1015F000C90704D1891E0161204600F019F920684D
:101600000169C943090609D4C168C943090605D45B
:101610006FF0800101612046FFF75AFE20680169E2
:10162000C943490609D4C168C943490605D46FF0C6
:1016300040010161204600F009F920680169C943B1
:1016400089060BD4C168C943890607D46FF020010D
:1016500001612046BDE87040FFF73BBE70BD000051
:1016600030B587B0044614216846FEF7E3FD2468D0
:10167000164D0021164840230222AC420FD10468C7
:1016800044F0010404600068009300F0010005903C
:10169000CDE90121CDE9031269460E4811E00E4D56
:1016A000AC4210D1046844F0020404600068009366
:1016B00000F002000590CDE90121CDE90312694651
:1016C0000648FFF74FF807B030BD000000040040A7
:1016D0003038024000000240000800400004024090
:1016E000704770B5044690F83C000D4601280DD0B7
:1016F000012684F83C60022084F83D0042B1042AAF
:1017000018D0082A2AD00C2A4DD139E0022070BD09
:10171000206800F0DFFB2068816941F008018161E9
:101720002068816921F004018161206881692A694A
:10173000114311E0206800F0FDFB2068816941F44D
:10174000006181612068816921F480618161206884
:1017500081692A6941EA0221816124E0206800F060
:101760001FFC2068C16941F00801C1612068C1699E
:1017700021F00401C1612068C1692A69114311E0A7
:10178000206800F041FC2068C16941F40061C1613A
:101790002068C16921F48061C1612068C1692A693A
:1017A00041EA0221C16184F83D60002084F83C00D8
:1017B00070BD10B5040003D094F83D0010B107E0EF
:1017C000012010BD002084F83C00204600F00CF8F9
:1017D000022084F83D00211D206800F0F7FA012066
:1017E00084F83D00002010BD7047704710B50446D6
:1017F0000068012200F04EFB0B492068884202D0AD
:101800000A49884203D1416C41F400414164206897
:10181000816801F00701062903D0016841F0010148
:101820000160002010BD00000000014000040140E4
:1018300010B540210348FFF771F803480168491CBF
:10184000016010BD0000024000000020704770B52C
:10185000040004D094F83D00002510B106E00120FA
:1018600070BD84F83C50204600F01CF8022084F83B
:101870003D00204600F014FC2068016921F48041FD
:1018800001612068416921F02A0141612068C16835
:1018900041F40051C1602564012084F83D0000201E
:1018A00070BD000010B586B0044614216846FEF7EE
:1018B000C1FC14492068884221D1134800210268E4
:1018C00042F010020260006800F0100005900E481F
:1018D0001438026842F001020260006800F0010062
:1018E00005904FF4E06000900220CDE90101032053
:1018F00003900720049069460448FEF733FF06B0C2
:1019000010BD0000001001404438024000000240B9
:10191000FEE700007FB5002415480094019402946E
:101920001249039401604FF48031C0E9011404614D
:10193000047680F820400F49C0E90A140125C561EA
:10194000C46080F830404561FEF7EEFD08B1FEF757
:1019500043FDCDE90045694605480294FEF73EFD8A
:10196000002801D0FEF738FD7FBD000000200140B7
:10197000140000200100000F104810B50E4901604E
:101980000A21416000214FF04072C0E902124FF479
:101990008022026112014261017641768176C17630
:1019A00001774177FEF71AFE002803D0BDE810400A
:1019B000FEF712BD10BD0000006400405C00002076
:1019C00070B586B014216846FEF734FC294800241F
:1019D000016841F080010160016801F0800105911A
:1019E000016841F001010160016801F00101059108
:1019F000016841F004010160016801F004010591F2
:101A0000016841F002010160016801F002010591E5
:101A1000016841F0080101600068174E00F00800FD
:101A2000059000224FF480513046FEF77EFF0122E0
:101A30000E213046FEF779FF102000900F48012557
:101A4000CDE9010569460E48FEF78CFECDE900544C
:101A500069460C480294FEF785FE41F20E000090A4
:101A6000CDE90154694630460394FEF77BFE06B08B
:101A700070BD000030380240000C02400000111020
:101A800000080240000402400D4810B50B490160F7
:101A90000C49416000214FF480428160C0E903128B
:101AA00041618161C1610162FEF74AFF002803D0F4
:101AB000BDE81040FEF790BC10BD0000005400408F
:101AC00084000020801A06000F4810B50D490160FF
:101AD0004FF48271416000218160C1604FF4007257
:101AE0000161C0E90512C1610162416281620A219E
:101AF000C162FFF751FB002803D0BDE81040FEF79C
:101B00006BBC10BD00300140D80000200B4810B560
:101B10000949016000214FF6FF724160C0E90212DD
:101B200001618161FFF71EFC002803D0BDE8104071
:101B3000FEF752BC10BD000000200040F001002064
:101B400010B586B0002416480094019402940394C2
:101B500004944FF08041059401605321C0E90114C1
:101B60001049C0E903148461FFF7FCFB08B1FEF7DC
:101B700033FC4FF48050009069460948FFF750FC51
:101B800008B1FEF729FC049404A905480594FFF761
:101B9000A1FB002801D0FEF71FFC06B010BD00001D
:101BA000300100201FA1070010B58EB0002407945B
:101BB000089409940A940B941C2168460C94FEF72F
:101BC00039FB1E481C4901605321C0E9011440F251
:101BD000E731C0E903148461FFF7C4FB08B1FEF7E5
:101BE000FBFB4FF48050079007A91448FFF718FC3F
:101BF00008B1FEF7F1FB1148FFF7DBFD08B1FEF776
:101C0000EBFB0B940BA90D480C94FFF763FB08B199
:101C1000FEF7E2FB6020CDE9000402940022694651
:101C200006480494FFF75DFD08B1FEF7D5FB0348B5
:101C3000FFF716FD0EB010BD00040040700100203B
:101C400010B58EB000240794089409940A940B945C
:101C50001C2168460C94FEF7EDFA1E481C49C0E9A9
:101C600000144FF6FF71C0E9024104618461FFF77F
:101C700079FB08B1FEF7B0FB4FF48050079007A93D
:101C80001448FFF7CDFB08B1FEF7A6FB1148FFF79C
:101C900090FD08B1FEF7A0FB0B940BA90D480C9426
:101CA000FFF718FB08B1FEF797FB6020CDE90004B1
:101CB00002940022694607480494FFF712FD08B118
:101CC000FEF78AFB0348FFF7CBFC0EB010BD000007
:101CD00000080040B00100200D4810B50B4901601C
:101CE0004FF4E1314160002181600C22C160C0E904
:101CF00004128161C1610162FFF7A9FD002803D0D0
:101D0000BDE81040FEF768BB10BD000000100140A8
:101D100030020020FEE7704770477047FEF70ABFA9
:101D200030B593B030216846FEF784FA14210CA830
:101D3000FEF780FA19480025016841F080510160E2
:101D4000006800F0805011901548016841F480410E
:101D500001600068022400F480401190012000908E
:101D6000000401908001CDE9064008AA0420A821C2
:101D700082E813000B906846FFF760F80CA90F206B
:101D800081E831004FF4A0500F90E002109005213F
:101D90000CA8FEF769FF13B030BD000040380240C8
:101DA000007000400548016841F47001016003497A
:101DB0004FF00060803908607047000088ED00E057
:101DC0000148FFF799BB000030010020F0B5026820
:101DD000254C264D264E274F274B4FF0804CA042D6
:101DE00009D0604507D0A84205D0B04203D0B84220
:101DF00001D0984204D122F0700E4A6842EA0E02E5
:101E0000A0421BD0604519D0A84217D0B04215D0CF
:101E1000B84213D0984211D0184DA8420ED0184D98
:101E2000A8420BD0174DA84208D0174DA84205D0A4
:101E3000164DA84202D0164DA84203D122F4407597
:101E4000CA682A434D6922F080022A4302608A68E8
:101E5000C2620A688262A04201D0984201D1096937
:101E6000016301214161F0BD000001400004004018
:101E700000080040000C0040000401400040014008
:101E8000004401400048014000180040001C004090
:101E90000020004010B501F01F030121046A9940A1
:101EA0008C430462016A9A401143016210BD10B56F
:101EB000846842EA032224F47F440A432243826076
:101EC00010BD826822F070020A4342F0070181606F
:101ED00070470000F0B5026A22F001020262036A54
:101EE00042688469124E24F073050C682C4323F079
:101EF00002058B682B430D4DA84201D0B04205D19D
:101F000023F00807CB683B4323F00403A84201D029
:101F1000B04205D14D6922F4407215438A692A43C3
:101F200042608461496841630362F0BD0000014082
:101F300000040140F0B5026A22F010020262026A57
:101F4000436884690D6824F4E64444EA05248D68F6
:101F500022F0200242EA05120F4D104EA84201D095
:101F6000B04206D1CF6822F0800242EA071222F086
:101F70004002A84201D0B04207D14D6923F440632A
:101F800043EA85038D6943EA8503436084614968B8
:101F900081630262F0BD00000000014000040140C6
:101FA000F0B5026A22F480720262026A4368C46970
:101FB00022F4007224F073050C68124E2C438D68D5
:101FC00042EA05220E4DA84201D0B04206D1CF68A8
:101FD00022F4006242EA072222F48062A84201D081
:101FE000B04207D14D6923F4405343EA05138D698C
:101FF00043EA05134360C4614968C1630262F0BDEE
:10200000000001400004014030B5026A22F4805211
:102010000262046A4268C3690D6823F4E64343EA36
:1020200005238D6824F4005444EA0534084DA84281
:1020300002D0084DA84204D14D6922F4804242EA00
:1020400085124260C36149680164046230BD0000CA
:10205000000001400004014010B5036A046A24F046
:1020600001040462846924F0F00444EA021423F0B9
:102070000A020A438461026210BD10B5036A23F0AC
:10208000100303628369046A23F4704343EA023253
:1020900024F0A00343EA01118261016210BD000037
:1020A0002DE9F04104460068C16821F00C01C160CF
:1020B00021680869E56820F47C52D4E906031843D6
:1020C000236A2B431843104340F4006008612068E2
:1020D000C16849F20C6291432369A2681A4363699B
:1020E0000B431A4342F40041C1602068416921F466
:1020F000407141611D4920680027192664254FF071
:102100003208884202D01A49884202D1FEF756FEB0
:1021100001E0FEF743FE61684A18A0FB060147EBA9
:102120000703FEF74FF80146B0FBF5F00301B1FBE2
:10213000F5F06FF01802504301EB800008EBC0008F
:10214000B0FBF5F000F0F80003EB4003B1FBF5F055
:10215000504301EB800008EBC000B0FBF5F02168B4
:1021600000F0070018448860BDE8F08100100140CD
:1021700000140140FEE70907090E002804DB00F106
:10218000E02080F80014704700F00F0000F1E0201C
:1021900080F8141D704702E008C8121F08C1002A09
:1021A000FAD170477047002001E001C1121F002AD8
:1021B000FBD17047FEF7C6FCFFF7B2FDFFF700FC4E
:1021C000FFF7BEFCFFF760FCFFF77EFCFFF784FD26
:1021D000FFF7A0FBFFF7D0FBFFF798FCFFF7E4FC4D
:1021E000FFF72EFD00210248FFF700FBFEE700008D
:1021F0007001002000000000000000000102030444
:102200000607080900000000010203042C22000850
:102210000000002014000000962100084022000861
:102220001400002064060000A62100080000000041
:102230000100000010000000000000000024F40075
:040000050800018965
:00000001FF
