:020000040800F2
:1000000030080020290200084D220008691B000862
:10001000012200081F040008D52A00080000000083
:10002000000000000000000000000000272600087B
:1000300021040008000000002526000829260008E9
:10004000430200084302000843020008430200087C
:10005000430200084302000843020008430200086C
:10006000430200084302000843020008430200085C
:10007000430200084302000843020008430200084C
:10008000430200084302000843020008430200083C
:10009000430200084302000843020008430200082C
:1000A00043020008D126000843020008430200086A
:1000B000DD2600084302000843020008430200084E
:1000C00043020008430200084302000843020008FC
:1000D00043020008430200084302000843020008EC
:1000E00043020008430200084302000843020008DC
:1000F00043020008430200084302000843020008CC
:1001000043020008430200084302000843020008BB
:100110004302000843020008E926000843020008E1
:10012000430200084302000843020008430200089B
:10013000430200084302000843020008430200088B
:10014000430200084302000843020008430200087B
:10015000430200084302000843020008430200086B
:10016000430200084302000843020008430200085B
:100170004302000843020008430200080000000098
:10018000430200084302000800F002F800F03CF8C7
:100190000AA090E8000C82448344AAF10107DA45E2
:1001A00001D100F031F8AFF2090EBAE80F0013F0F8
:1001B000010F18BFFB1A43F001031847E036000097
:1001C00000370000103A24BF78C878C1FAD8520727
:1001D00024BF30C830C144BF04680C6070470000C1
:1001E0000023002400250026103A28BF78C1FBD840
:1001F000520728BF30C148BF0B6070471FB502F0DF
:100200002AFF1FBD10B510BD00F0CFF81146FFF753
:10021000F5FF02F079FC00F0EDF803B4FFF7F2FF10
:1002200003BC00F0F5F80000094880470948004782
:10023000FEE7FEE7FEE7FEE7FEE7FEE7FEE7FEE796
:10024000FEE7FEE704480549054A064B70470000F3
:10025000C126000889010008300200203008002073
:10026000300400203004002053EA020C00F06980C2
:100270002DE9F04B4FF00006002B1FBFB3FA83F5BA
:1002800003FA05F424FA05F65E4012BF1643B2FAEB
:1002900082F502FA05F4C5F120051EBF22FA05FC1D
:1002A00044EA0C04203556EA044C4FEA144418BFC3
:1002B000641C4FF000084FF00009904271EB030CF2
:1002C00039D3002919BFB1FA81F701FA07F6B0FA5C
:1002D00080F700FA07F6C7F120071EBF20FA07FCD7
:1002E00046EA0C062037B6FBF4FCA7EB0507103FE7
:1002F00007F01F0BCBF120060CFA0BFB2CFA06F6CD
:1003000044BFB3460026202FA4BF5E464FF0000B2B
:100310005BEA060C08BF4FF0010B19EB0B09ABFBB6
:10032000027C48EB0608C01B06FB02CC0BFB03CC8F
:1003300071EB0C01C1E70B46024641464846BDE859
:10034000F08B13B54FF000004FF00001AFF30080C9
:10035000BDE81C4070474FF0000200B513469446BC
:100360009646203922BFA0E80C50A0E80C50B1F10D
:100370002001BFF4F7AF090728BFA0E80C5048BF21
:100380000CC05DF804EB890028BF40F8042B08BFBF
:10039000704748BF20F8022B11F0804F18BF00F8BB
:1003A000012B7047704770477047754600F02CF876
:1003B000AE4605006946534620F00700854618B052
:1003C00020B5FFF73FFFBDE820404FF000064FF09B
:1003D00000074FF000084FF0000B21F00701AC467A
:1003E000ACE8C009ACE8C009ACE8C009ACE8C00999
:1003F0008D46704710B50446AFF300802046BDE837
:100400001040FFF70ABF000000487047D0010020ED
:1004100001491820ABBEFEE7260002007047FEE748
:10042000704772B6FEE7000003480068416A034A5D
:100430001180002141627047B400002000000020BC
:1004400070B5044600F00CF90546601C02D0044863
:100450000078044400F004F9401BA042FAD370BDB8
:10046000080000202DE9F84FDFF8BCA1002201258B
:1004700003264FF00F090AF1040BAAF1040E00BF86
:100480000B6805FA02F42340A34270D10F7907F0FC
:100490000307012F01D0022F16D187684FEA4208C7
:1004A00006FA08FC27EA0C07D1F80CC00CFA08FC85
:1004B0004CEA070CC0F808C04768A7430C79C4F39E
:1004C000001494403C4344600C79E443A4070AD0F0
:1004D000C4684FEA420C06FA0CF7BC438F6807FA6F
:1004E0000CF72743C7600C7904F00304022C12D1E7
:1004F000D40800EB840CDCF820405707FF0E09FA03
:1005000007F824EA0804D1F8108008FA07F848EA46
:100510000408CCF8208004684FEA420C06FA0CF775
:10052000BC430F7907F0030707FA0CF7274307606E
:100530004C6814F4403F70D03C4C276847F4804727
:100540002760246822F0030704F480440094384CA8
:1005500007EB040CDCF8084897074FEA177809FA0C
:1005600008F7BC43334FB84202D1002724E054E0DF
:10057000314FB84201D101271EE0304FB84201D1BE
:10058000022719E02E4FB84201D1032714E02D4F66
:10059000B84201D104270FE02B4FB84201D1052703
:1005A0000AE02A4FB84201D1062705E0284FB84299
:1005B00001D1072700E0082707FA08F72743CCF8FE
:1005C0000878DAF800405746D1F804C09C435FEA47
:1005D000CC2C00D51C433C60DBF800405F46D1F8D2
:1005E00004C09C435FEA8C2C00D51C433C60DEF8C1
:1005F00000407746D1F804C09C435FEA8C3C00D5AC
:100600001C433C60084F083F3C68D1F804C09C4341
:100610005FEACC3C00D51C433C60521C102AFFF41E
:100620002FAFBDE8F88F0000083C0140443802407D
:100630000030014000000240000402400008024077
:10064000000C02400010024000140240001802405A
:10065000001C02400AB1816170470904FBE70000F9
:1006600001488068704700000800002070B5040051
:1006700025D094F83D00002520B984F83C50204650
:1006800000F0E6F9242084F83D002068016821F09C
:10069000010101602068016841F4004101602068A7
:1006A000016821F40041016000F048FB4D4A616897
:1006B000914201D84C4900E04C49884201D20120C6
:1006C00070BD4B492368B0FBF1F15E6826F03F0630
:1006D0000E435E606368934206D94FF496735943A4
:1006E0004FF47A73B1FBF3F12368491C1E6A26F0BC
:1006F0003F06314319626168914210D84900401E9B
:10070000B0FBF1F2521CC2F30B02042A01D2042006
:1007100022E0B0FBF1F0401CC0F30B001CE0A2682B
:10072000F2B301EBC10303EB0116431EB3FBF6F377
:100730005B1C43F480431B0549D092B301EBC1021B
:1007400002EB0111401EB0FBF1F0401CC0F30B00A6
:1007500040F4804040F400402168CA694CF6FF73C1
:100760009A431043C861D4E9071001432068026826
:1007700022F0C00211430160D4E903010143206863
:10078000826848F2FF339A4311438160D4E905013E
:1007900008432168CA6822F0FF021043C86001E0E4
:1007A0000EE016E02068016841F001010160256457
:1007B000202084F83D00256384F83E50002070BD61
:1007C00001EB4106431EB3FBF6F35B1CB3E70120CC
:1007D000C2E701EB4101401EB0FBF1F0401CC0F349
:1007E0000B00B7E7A086010080841E0000093D00D1
:1007F00040420F002DE9F84F1F4690468A460446B6
:10080000DDF82890FFF72CFF054694F83D002028DE
:100810007FD11923012240492046009501F084FA36
:10082000002876D194F83C00012872D0012084F889
:100830003C0020680168C90703D1016841F001014B
:1008400001602068016821F400610160212084F8C2
:100850003D00102084F83E0000262664C4F8248061
:100860006785608D20852D48E0622B464A465146BB
:10087000204601F091F990B92068416980690090A3
:1008800036E02A464946204601F0CDFA50B1206CA8
:10089000042804D12068016841F40071016001203E
:1008A000BDE8F88F606A216800780861606A401CC2
:1008B0006062618D491E6185218D491E89B2218545
:1008C00022685369DB435B070BD451B10078106198
:1008D000606A401C6062608D401E6085208D401EF5
:1008E00020852A464946204601F0F8F90028CED155
:1008F000208D0028C5D154F83D0B016841F40071EA
:100900000160202004F81E09E67766770020C7E71B
:10091000FFE70220C4E70000020010000000FFFF14
:100920002DE9FF4F83B09A46DDE9119793460446BF
:10093000DDF84080FFF794FE054694F83D0020283E
:100940007FD11923012240492046009501F0ECF99E
:10095000002876D194F83C00012872D0012084F858
:100960003C0020680168C90703D1016841F001011A
:1009700001602068016821F400610160212084F891
:100980003D00402084F83E0000262664C4F8248000
:10099000A4F82A90608D20852C48E062CDE900758E
:1009A00053465A462046049901F044F970B930E0A4
:1009B0002A463946204601F036FA58B1206C042800
:1009C00004D12068016841F400710160012007B082
:1009D000BDE8F08F606A216800780861606A401C99
:1009E0006062218D491E89B22185628D521E628509
:1009F00022685369DB435B070BD469B1007810614F
:100A0000606A401C6062208D401E2085608D401E03
:100A10006085208D0028CBD12A463946204601F03A
:100A20005DF90028CAD154F83D0B016841F400710A
:100A30000160202004F81E09E67766770020C6E7EB
:100A4000FFE70220C3E70000020010000000FFFFE4
:100A50002DE9F04186B0044614216846FFF77BFC7F
:100A60001949206888422CD118484FF000080168C5
:100A700041F0020101600068122400F002000590BC
:100A80004020CDE9000402AA01200325042682E8C3
:100A900061000F4F69463846FFF7E4FC80208DE87F
:100AA0001101CDE9035669463846FFF7DBFC0748DC
:100AB0001030016841F400110160006800F400107A
:100AC000059006B0BDE8F081005400403038024087
:100AD0000004024002488168027811448160704736
:100AE000080000200B4810B5016841F40071016056
:100AF000016841F480610160016841F48071016026
:100B0000032000F06FF80F2000F006F800F024F842
:100B1000002010BD003C024070B50D4D04464FF45E
:100B20007A712878B1FBF0F00A490968B1FBF0F05E
:100B300000F00AFB48B9102C07D200222146501EB3
:100B400000F030F800206C6070BD012070BD000026
:100B500008000020140000200A4808B5016841F48C
:100B600080410160006800F4804000900548001F4B
:100B7000016841F080510160006800F080500090F1
:100B800008BD000044380240002809DB00F01F02C5
:100B9000012191404009800000F1E020C0F80011DF
:100BA00070470000F0B40E4B1B680C46C3F30223E1
:100BB000C3F10705042D00D90425191D072901D209
:100BC000002300E0DB1E012606FA05F1491E214044
:100BD00099409E40761E16403143F0BC01F083BF21
:100BE0000CED00E0064900F0070208684FF6FF032D
:100BF000184040EA0220034A104308607047000092
:100C00000CED00E00000FA052DE9F0470E46050066
:100C100065D0DFF81481D8F80000F7B200F00700C3
:100C2000B04207D288F80070D8F8000000F0070042
:100C3000B04254D128683D4C810712D5400703D5F6
:100C4000206840F4E05020602878000703D5206831
:100C500040F4604020602068A96820F0F00008435C
:100C600020602878C0072DD03049686808390128ED
:100C700012D0022813D0032811D00968890700294F
:100C80002DDA216821F0030101432160FFF7E8FC20
:100C9000814641F2883A0EE009688903EFE7096866
:100CA0008901ECE7FFF7DCFCA0EB0901514502D913
:100CB0000320BDE8F0872068696800F00C00B0EB05
:100CC000810FEFD1D8F80010404601F00701B14282
:100CD00007D90770006800F00700B04201D001207A
:100CE000E7E72878400705D52068E96820F4E05058
:100CF000084320602878000706D52068296920F479
:100D0000604040EAC100206000F038F82168084ADD
:100D1000C1F30311515CC8400649086006480068E9
:100D2000FFF7FAFE0020C4E7003C0240083802400A
:100D300082380008140000200C00002004480549F7
:100D400000680968044AC1F38221515CC8407047B9
:100D50001400002008380240923800080448054971
:100D600000680968044AC1F34231515CC8407047C9
:100D7000140000200838024092380008154810B5C9
:100D8000006810F00C02144813D04110042A0FD050
:100D9000082A0ED10F4C241F2268236802F03F025C
:100DA0005B0207D52068C0F38810A0FB010106E0B4
:100DB000084610BD2168C1F38811A1FB0001002382
:100DC000FFF752FA2168C1F30141491C4900B0FB09
:100DD000F1F010BD083802400024F4002DE9F84F6E
:100DE00004006ED02078DFF84C93C007A9F1040509
:100DF0004AD009F104000168C1F38101012908D03A
:100E00000068C0F3810002280AD1D9F8000040022E
:100E100006D52868800337D560680028E1D033E024
:100E20006068B0F5803F10D0B0F5A02F286810D0D2
:100E300020F480302860286820F4802028606068D2
:100E4000A8B1FFF70DFC06460DE0286840F480309D
:100E5000F4E740F480202860F7E700BFFFF700FCCC
:100E6000801B642873D828688003F7D50CE0FFF74F
:100E7000F7FB064605E000BFFFF7F2FB801B642886
:100E8000F0D828688003F7D42078DFF8AC82800798
:100E90004FF0000A3ED5A748001D016811F00C0F65
:100EA00008D00068C0F3810002280BD1D9F80000F7
:100EB000400207D42868800716D5E068012800D1D1
:100EC00012E033E1E068B8B10120C8F80000FFF794
:100ED000C7FB064605E000BFFFF7C2FB801B0228E8
:100EE000C0D828688007F7D52868216920F0F80065
:100EF00040EAC10028600DE0C8F800A0FFF7B0FB91
:100F0000064604E0FFF7ACFB801B02281FD82868C8
:100F10008007F7D42078000722D5864F874861697B
:100F2000703771B101210160FFF79AFB064604E0BA
:100F3000FFF796FB801B022809D838688007F7D591
:100F40000EE0C0F800A0FFF78BFB064605E082E04C
:100F5000FFF786FB801B02287DD838688007F7D40E
:100F60002078400768D5DFF8CCB100270BF13C0BA7
:100F7000DBF80000C0000BD4DBF8001041F080511A
:100F8000CBF80010DBF80000012700F08050009043
:100F90006B4E3068C00510D4306840F4807030600B
:100FA000FFF75EFB009005E0FFF75AFB0099401A3F
:100FB000022850D83068C005F6D55E4EA0686C3661
:100FC00001280FD00528306810D020F001003060D3
:100FD000306820F004003060A068B8B1FFF740FB33
:100FE00000900FE0306840F00100F4E740F00400AA
:100FF0003060F7E7FFF734FB0099411A41F288307F
:10100000814266D830688007F4D50EE0FFF728FBF0
:10101000009007E0FFF724FB0099411A41F2883065
:10102000814256D830688007F4D42FB1DBF8001025
:1010300021F08051CBF80010A069C8B33D49091DCB
:101040000968C1F3810102294AD00228504607D01D
:10105000C8F8600000E03CE0FFF702FB04463BE01C
:101060004746C8F86000FFF7FBFA064605E000BFF8
:10107000FFF7F6FA801B02282BD828688001F7D4E6
:10108000D4E907010843A16A2E4A490802EB01414D
:10109000626A41EA8211084394F82C1040EA016127
:1010A000C9F8001001203866FFF7DAFA044606E0B6
:1010B0003EE000BFFFF7D4FA001B022809D82868D9
:1010C0008001F7D534E000BFFFF7CAFA001B022801
:1010D00002D90320BDE8F88F28688001F4D427E006
:1010E0000128F7D0D9F80000E26900F480019142AC
:1010F0001CD1226A00F03F01914217D147F6C0711E
:10110000626A0140B1EB821F10D1A26A4FF0FF3337
:1011100000F4403103EB5202B1EB024F06D194F8D8
:101120002C1000F07060B0EB016F01D00120D1E70E
:101130000020CFE70438024000004742800E4742BB
:10114000007000400000FFFF10B5401EB0F1807F2E
:1011500001D3012010BD4FF0E02460610F21601722
:1011600001F0C1FC0020A06107202061002010BD1B
:101170007047704710B590F83C20012A22D0012218
:1011800080F83C20CA688C6822F4407222434C6884
:1011900022F4806222430C6822F4006222430C692C
:1011A00022F4805222434C6922F400522243C9693E
:1011B000002322F480420A4301684A6480F83C30EC
:1011C000002010BD022010BD70B590F83C20012A0F
:1011D00032D0012480F83C40022280F83D20036890
:1011E0005A689D6822F070060A6832435A60134BB1
:1011F00002689A4214D0B2F1804F11D0104B9A423B
:101200000ED0104B9A420BD00F4B9A4208D00F4B86
:101210009A4205D00E4B9A4202D00E4B9A4204D10C
:10122000496825F080031943916080F83D40002112
:1012300080F83C10084670BD022070BD00000140DF
:101240000004004000080040000C00400004014081
:10125000004001400018004010B5040003D094F88D
:101260003D0010B107E0012010BD002084F83C00D3
:10127000204600F01FF8022084F83D00211D206860
:1012800001F038FA012084F8460084F83E0084F822
:101290003F0084F8400084F8410084F8420084F85C
:1012A000430084F8440084F8450084F83D000020A1
:1012B00010BD000008B50068154988420FD11548D7
:1012C000016841F0010101600068002200F00100A6
:1012D000009011461920FFF765FC192012E00E4915
:1012E000884213D10B48001F016841F010010160D2
:1012F0000068002200F01000009001213620FFF766
:1013000051FC3620BDE80840FFF73EBC08BD000098
:1013100000000140443802400010004090F83D10A9
:10132000012901D001207047022180F83D10016899
:10133000CA6842F00102CA6000681149884214D0AC
:10134000B0F1804F11D00F4988420ED00E4988422B
:101350000BD00E49884208D00D49884205D00D496E
:10136000884202D00C49884204D1816801F007010B
:10137000062903D0016841F0010101600020704797
:10138000000001400004004000080040000C004044
:1013900000040140004001400018004070B50446C0
:1013A00090F83C000025012817D0012684F83C6005
:1013B000022084F83D002068826822F0770222F43F
:1013C0007F4282600868502838D00DDC20284FD03A
:1013D00005DC90B3102811D14AE0022070BD3028FE
:1013E00046D040280AD13BE060282FD070280DD08D
:1013F000B0F5805F03D0B0F5005F12D0012584F80E
:101400003D60002084F83C00284670BDCB68D1E9DF
:101410000121206801F0DFF92068816841F077013F
:1014200009E0CB68D1E90121206801F0D4F92068F6
:10143000816841F480418160E1E719E0CA68496848
:10144000206801F09DFA5021206806E0CA684968CA
:10145000206801F0A6FA6021206801F0C6F9CEE705
:10146000CA684968206801F08BFA40212068F4E7D7
:10147000226801461046F0E72DE9F0410D460400D0
:1014800003D094F83D0018B108E00120BDE8F081D8
:10149000002084F83C00204600F040F8022084F848
:1014A0003D002068816844F2070291438160211D5C
:1014B000206801F01FF9226890689169166A2B680C
:1014C000AF69034340F20330814341EA0721A86832
:1014D000EF6908434FF6FC418843E96840EA07207A
:1014E000014328692F6A000140EA07300843696810
:1014F0006D6926F0AA0646EA05152943936022681D
:10150000906154F8460B0162012004F81F09E07550
:101510002076E0762077A0750020B7E730B587B059
:10152000044614216846FEF716FF26492468002267
:10153000244810390223B4F1804F1FD0224DAC4211
:101540001AD1046844F004040460006800F0040048
:101550000590086840F0080008600868694600F0D7
:10156000080005904FF440500090CDE90132174833
:10157000CDE90323FEF776FF07B030BD046844F0E1
:1015800001040460006800F001000590086840F064
:10159000010008600868694600F00100059003201A
:1015A000CDE900030120CDE9020204900848FEF7CE
:1015B00059FF002211461C20FFF7F4FA1C20FFF708
:1015C000E3FAD9E74038024000080040000C02402E
:1015D0000000024070B590F83E60044690F83F501D
:1015E00090F8423090F84320022021B104290ED017
:1015F000012E1BD114E0012E18D1012B16D184F835
:101600003E0084F8420001220021206820E0012DE4
:101610000CD1012A0AD184F83F0084F8430014E079
:10162000012D03D1012B01D1012A01D0012070BD70
:1016300084F83E0084F83F0084F8420084F84300B8
:1016400001220021206801F0B9F80122042120685C
:1016500001F0B4F82068016841F001010160002048
:1016600070BD704770B50446006801694FF0000511
:10167000C943890715D4C168C943890711D4E91E34
:10168000016101202077206880698007204602D010
:10169000FFF7E7FF04E000F0C3F8204600F055F93B
:1016A000257720680169C943490717D4C168C94330
:1016B000490713D46FF004010161022020772068EC
:1016C000806910F4407F204602D0FFF7CAFF04E093
:1016D00000F0A6F8204600F038F925772068016967
:1016E000C943090716D4C168C943090712D46FF06A
:1016F00008010161042020772068C0698007204626
:1017000002D0FFF7AEFF04E000F08AF8204600F0B8
:101710001CF9257720680169C943C90617D4C16837
:10172000C943C90613D46FF0100101610820207766
:101730002068C06910F4407F204602D0FFF791FF77
:1017400004E000F06DF8204600F0FFF825772068EF
:101750000169C943C90708D1C168C943C90704D190
:10176000891E0161204600F055F920680169C943CE
:10177000090609D4C168C943090605D46FF0800180
:1017800001612046FFF7F4FC20680169C94349065E
:1017900009D4C168C943490605D46FF0400101610D
:1017A000204600F079F920680169C94389060BD405
:1017B000C168C943890607D46FF020010161204642
:1017C000BDE87040FFF7D5BC70BD000010B586B015
:1017D000044614216846FEF7BEFD0E492068884283
:1017E00016D10D480021026842F010020260006824
:1017F00000F0100005904FF4D44000900220CDE995
:1018000001010120CDE9031069460448FEF72AFED4
:1018100006B010BD00000140303802400010024008
:10182000704770B5044690F83C0000260D4601282C
:101830000FD0012084F83C006AB1042A1DD0082A88
:101840002FD00C2A3FD00126002084F83C003046DF
:1018500070BD022070BD206800F0D0FF2068816953
:1018600041F0080181612068816921F004018161F2
:10187000206881692A69114311E0206800F0EEFFB9
:101880002068816941F4006181612068816921F4E7
:1018900080618161206881692A6941EA0221816150
:1018A000D2E7206801F010F82068C16941F0080112
:1018B000C1612068C16921F00401C1612068C1696A
:1018C0002A69114311E0206801F032F82068C169EB
:1018D00041F40061C1612068C16921F48061C16186
:1018E0002068C1692A6941EA0221C161ACE710B5EB
:1018F000040003D094F83D0010B107E0012010BDB2
:10190000002084F83C00204600F01EF8022084F8F5
:101910003D00211D206800F0EDFE012084F8460006
:1019200084F83E0084F83F0084F8400084F84100C9
:1019300084F8420084F8430084F8440084F84500A9
:1019400084F83D00002010BD7047704710B5044674
:10195000022249B104290ED0082913D094F841007D
:10196000012816D0012010BD94F83E000128F9D1BD
:1019700084F83E200FE094F83F000128F2D184F86B
:101980003F2008E094F840000128EBD184F8402083
:1019900001E084F841200122206800F00FFF164981
:1019A0002068164A884201D0904203D1436C43F428
:1019B000004343642068884213D0B0F1804F10D0B8
:1019C0000F4988420DD00F4988420AD00E498842FB
:1019D00007D0904205D00D49884202D00C49884278
:1019E00004D1816801F00701062903D0016841F0A4
:1019F00001010160002010BD000001400004014011
:101A00000004004000080040000C0040004001407D
:101A10000018004038B51B49884231D1FEF704FD5B
:101A2000194C0C250095B4F90000022300EE100AB1
:101A300005220621B8EEC00A002000F045FDB4F9E9
:101A400000009FED121A00EE100AF8EEC00A80EEB8
:101A5000810A10EE100A01F08DFA9FED0D1B53EC78
:101A6000112B01F0DBF801F0A7F800EE100A0223B9
:101A700084ED010A1A4604210020009500F024FD9F
:101A800038BD000044010020000000200080E34435
:101A90009A9999999999B93F704770B5040004D003
:101AA00094F83D00002510B106E0012070BD84F8D7
:101AB0003C50204600F022F8242084F83D002068A5
:101AC000C16821F40051C160204600F07DFF20680C
:101AD000016921F4904101612068416921F02A01E6
:101AE00041612068C16841F40051C1602564202033
:101AF00084F83D0084F83E00002070BD10B586B02B
:101B0000044614216846FEF726FC144920688842E2
:101B100021D113480021026842F0100202600068DF
:101B200000F0100005900E481438026842F00102DF
:101B30000260006800F0010005904FF4C060009062
:101B40000220CDE90101032003900720049069469B
:101B50000448FEF787FC06B010BD000000100140ED
:101B60004438024000000240FEE701684A69D2435F
:101B700052050FD46FF480624A61002140F8301F93
:101B8000202242738173026942F0040202610173F0
:101B90000120704700207047F8B50446C06A1E4611
:101BA0000D461746082807D0012805D010F5803FBC
:101BB00002D0206B122804D12068016841F48071A2
:101BC0000160134600224FF001112046009600F0FC
:101BD000ABF840B120680068C00502D54FF4007032
:101BE00020640320F8BD2069B0F5804F0ED0062098
:101BF000216800EAD51040F0F000086133463A460B
:101C00000B49204600F0C4F878B902E005F0FE0068
:101C100000E0E8B221680861054933463A46891F69
:101C2000204600F0B5F80028DCD00120F8BD000007
:101C3000080001002DE9F843044600680D46DDE97F
:101C4000089701689846164641F4807101604B463A
:101C500000224FF001112046009700F065F848B1CE
:101C600020680068C00502D54FF40070206403208E
:101C7000BDE8F883216805F0FE0008613B464A464E
:101C80001549204600F084F888B9206841698069C8
:101C900000903A464946204600F0C5F848B1206C0D
:101CA000042804D12068016841F40071016001201A
:101CB000DEE7F5B2B8F1010F09D02168300A0861FA
:101CC0003A464946204600F0AEF80028E7D12068A1
:101CD00005610020CCE700000200010070B5164647
:101CE0000D4604460DE02046FFF73FFF08B10120F6
:101CF00070BD681C05D0FEF7B3FC801BA84207D856
:101D000035B120684069C0434007ECD4002070BD65
:101D1000002044F8300F20216173A073216941F045
:101D2000200121612073E2E72DE9F0471E4690462D
:101D30000D460446C1F30747DDF8209008E0701C0B
:101D400006D0FEF78DFCA0EB0900B0420FD876B1AB
:101D50002068012F18D0806925EA00000004000CDB
:101D600014D000214145EAD00020BDE8F0870020D2
:101D700044F8300F20216173A073216941F02001E4
:101D8000216120730120F0E74069E5E70121E9E7DF
:101D90002DE9F0479A4691460E46044600254FF03D
:101DA0002008C1F3074725E020684069C04340058B
:101DB00014D42068016841F40071016021686FF457
:101DC00080604861256384F83D8084F83E50206C33
:101DD00040F00400206484F83C501FE0B9F1FF3F5C
:101DE00008D0FEF73DFCA0EB0A0149450CD8B9F13B
:101DF000000F09D02068012F13D0806926EA000067
:101E00000004000C0BD0CFE744F8305F84F80D805D
:101E1000A573206940F02000206125730120BDE8F2
:101E2000F0874069EAE770B516460D4604460DE0B6
:101E30002046FFF79AFE08B1012070BD681C05D04E
:101E4000FEF70EFC801BA84207D835B12068406918
:101E5000C0430006ECD4002070BD002044F8300FD1
:101E600020216173A073216941F020012161207359
:101E7000E2E700001CB502238DF804004FF47A70ED
:101E80008DF80510009001AA78210248FEF7B2FCF7
:101E90001CBD000018000020F0B587B01421684672
:101EA000FEF759FA30480024016841F0040101604E
:101EB000016801F004010591016841F080010160B1
:101EC000016801F080010591016841F001010160A4
:101ED000016801F001010591016841F040010160D4
:101EE000016801F040010591016841F010010160B5
:101EF000016801F010010591016841F008010160DD
:101F0000016801F008010591016841F002010160DA
:101F10000068164E00F002000590012202213046B2
:101F2000FEF798FB124F00224FF488513846FEF717
:101F300091FB012291023846FEF78CFB02200090B3
:101F40000125CDE90154694630460394FEF78AFA2B
:101F50004FF4A8500090CDE90154694638460394E7
:101F6000FEF780FA07B0F0BD30380240001802409A
:101F7000001002400D4810B50B4901600C4941604A
:101F800000214FF480428160C0E903124161816108
:101F9000C1610162FEF76AFB002803D0BDE8104072
:101FA000FEF73FBA10BD00000054004018000020AA
:101FB000A086010010B596B000240F9410941194DF
:101FC000129413941C2168461494FEF7C4F920213E
:101FD00007A8FEF7C0F93448324901604721C0E93B
:101FE000011442F21071C0E9031444618461FFF7E7
:101FF00033F908B1FEF715FA4FF480500F900FA98E
:102000002948FFF7CBF908B1FEF70BFA2648FFF78E
:102010006EFC08B1FEF705FA139413A92248149434
:10202000FFF7D2F808B1FEF7FCF96020CDE9000413
:102030000294039404940594002269461A48069475
:10204000FFF7EFFB08B1FEF7ECF9042269461648EA
:10205000FFF7E7FB08B1FEF7E4F9082269461248EA
:10206000FFF7DFFB08B1FEF7DCF90C2269460E48EA
:10207000FFF7D7FB08B1FEF7D4F907940894099449
:102080004FF400500A94CDE90B4007A906480E947E
:10209000FFF770F808B1FEF7C4F90348FFF796FBA5
:1020A00016B010BD000001406C00002010B58CB0CF
:1020B00024216846FEF74FF90024174809944FF091
:1020C00080410A940160A721C0E9011444F61F6110
:1020D000C1604FF40071846101610320CDE9000407
:1020E0000120CDE902040494CDE905400794694636
:1020F00009480894FFF7C0F908B1FEF792F909946E
:1021000009A905480A94FFF75FF8002801D0FEF7F7
:1021100088F90CB010BD0000B400002010B58CB0E0
:1021200024216846FEF717F900241548099413493D
:102130000A94C0E900144FF6FF71C0E9024104613E
:1021400084610120CDE90004CDE902040494CDE9C5
:102150000540079469460A480894FFF78DF908B1CD
:10216000FEF75FF9099409A905480A94FFF72CF8CE
:10217000002801D0FEF755F90CB010BD0008004052
:10218000FC0000201CB500240E4800940C4901946A
:102190000160A721C0E9011440F2E7318461C16008
:1021A000FFF75AF808B1FEF73CF900946946054874
:1021B0000194FFF709F8002801D0FEF732F91CBDA1
:1021C00000100040440100200C4810B50A4901608D
:1021D0004FF4E1314160002181600C22C160C0E90F
:1021E00004128161C161FFF758FC002803D0BDE8EB
:1021F0001040FEF716B910BD001001408C01002000
:10220000FEE7000010B53C210D48FFF7E3F90C4C48
:102210002068C16841F00101C1600A48FFF77EF8FB
:1022200004210948FFF792FB00210748FFF78EFBC6
:1022300008210548FFF78AFB21680020486210BD8D
:10224000FC000020440100206C000020FEE700207C
:10225000AFF3008070B506465FF0000404F1B000F3
:10226000C0B200F038FC002000F035FC102000F077
:1022700032FC0025304600F032FC6D1CEDB2802DA2
:10228000F8D3641CE4B2082CE8D370BD10B5642008
:10229000FEF7D6F8AE2000F01EFC202000F01BFC5C
:1022A000102000F018FCB02000F015FCC82000F051
:1022B00012FC002000F00FFC102000F00CFC40206D
:1022C00000F009FC812000F006FCFF2000F003FC78
:1022D000A12000F000FCA62000F0FDFBA82000F0EB
:1022E000FAFB3F2000F0F7FBA42000F0F4FBD32022
:1022F00000F0F1FB002000F0EEFBD52000F0EBFB3E
:10230000F02000F0E8FBD92000F0E5FB222000F0EF
:10231000E2FBDA2000F0DFFB122000F0DCFBDB2028
:1023200000F0D9FB202000F0D6FB8D2000F0D3FB7D
:10233000142000F0D0FBBDE81040AF2000F0CBBB74
:1023400010B50446B031C8B200F0C5FB102040EA19
:10235000141000F0C0FB04F00F00BDE8104040F086
:10236000010000F0B8BB00002DE9F041203A002444
:102370000D468046D6B27F2803D900208D1C8046AA
:10238000EDB2102B29460FD0FFF7DAFF164906EB06
:10239000460001EB4005285D00F032F9641CE4B210
:1023A000062CF8D3BDE8F081FFF7CAFF0F4F00BF3E
:1023B00004EB0610385C00F023F9641CE4B2082C2E
:1023C000F6D36D1CE9B24046FFF7BAFF5FF0000498
:1023D00004EB06103844007A00F012F9641CE4B2F1
:1023E000082CF5D3DEE700006A30000892320008BE
:1023F0002DE9F047002591468A460446012B22D05C
:10240000DFF8BC80022B24D155E02038C7B27E2CE7
:1024100004D90AF10100002400F0FF0A51462046C9
:10242000FFF78EFF07EB4700002608EB4007B85D7B
:1024300000F055FB761CF6B2062EF8D3A41D6D1CD9
:10244000E4B2EDB201E0DFF87C8019F80500002865
:10245000DBD1BDE8F0872038C7B2782C04D90AF167
:102460000100002400F0FF0A51462046FFF768FFF4
:102470005FF0000606EB071118F8010000F02FFBD3
:10248000761CF6B2082EF5D30AF10100C1B220463F
:10249000FFF756FF5FF0000606EB071101EB08009F
:1024A000007A00F01CFB761CF6B2082EF4D3083438
:1024B0006D1CE4B2EDB219F805000028CBD1C8E7D5
:1024C000923200086A3000082DE9FF5F99462DED31
:1024D000020B144606462DED028BB0EE408A4FF0FB
:1024E000000AB5EEC08AF1EE10FA05D2541CE4B22F
:1024F0004FF0010AB1EE488A1298BDEEC80A0025D5
:10250000470810EE108A26E0601B401EC1B20A2068
:1025100000F04AFBB8FBF0F10A20B1FBF0F200FB3F
:102520001210BBF1000F05D1611E8D4202DA40B1DD
:102530004FF0010B3030C2B207FB0560C0B2129BF6
:1025400004E007FB0560129BC0B220220599FFF74B
:102550000BFF6D1CEDB2A542D6D307FB0460C0B2E1
:102560002E22129B0599FFF7FFFE49460A2000F034
:102570001BFB00EE100A0025F8EE400A00EE108A60
:1025800006F10508B8EEC00A38EE400A20EE800ACF
:10259000BDEEC00A10EE10BA1CE000BFA9EB0500AA
:1025A000401EC1B20A2000F0FFFABBFBF0F10A2086
:1025B000B1FBF0F200FB12102A1907FB028101F0B7
:1025C000FF0C3030C2B26046129B0599FFF7CCFE7B
:1025D0006D1CEDB24D45E1D3BAF1000F0AD0129B4C
:1025E00005993046BDEC028B06B02D22BDE8F05FA8
:1025F000FFF7BABEBDEC028B06B0BDE8F09F00004D
:1026000001B584B001214FF4807204A88DE8070061
:102610000B46402278210248FEF782F905B000BD42
:102620001800002070477047FEF754BA30B593B0D9
:1026300030216846FDF78FFE14210CA8FDF78BFEB4
:102640001D480025016841F080510160006800F0DC
:10265000805011901948016841F480410160006880
:10266000022400F4804011900120009000040190A9
:102670008001CDE9064008AA0420A82182E81300C1
:102680000B906846FEF7AAFB08B172B6FEE70CA9EC
:102690000F2081E831004FF4A0500F904FF480508C
:1026A000109005210CA8FEF7AFFA002801D072B6F1
:1026B000FEE713B030BD000040380240007000401B
:1026C0000248016841F470010160704788ED00E044
:1026D0000148FEF7C7BF00006C0000200148FEF76C
:1026E000C1BF0000B40000200148FEF7BBBF0000DE
:1026F00044010020F0B50268254C264D264E274F98
:10270000274B4FF0804CA04209D0604507D0A8422B
:1027100005D0B04203D0B84201D0984204D122F093
:10272000700E4A6842EA0E02A0421BD0604519D0E2
:10273000A84217D0B04215D0B84213D0984211D059
:10274000184DA8420ED0184DA8420BD0174DA842E4
:1027500008D0174DA84205D0164DA84202D0164DFC
:10276000A84203D122F44075CA682A434D6922F079
:1027700080022A4302608A68C2620A688262A042BA
:1027800001D0984201D10969016301214161F0BD85
:10279000000001400004004000080040000C004020
:1027A0000004014000400140004401400048014055
:1027B00000180040001C00400020004010B501F04F
:1027C0001F030121046A99408C430462016A9A4004
:1027D0001143016210BD10B5846842EA032224F45B
:1027E0007F440A432243826010BD826822F0700257
:1027F0000A4342F00701816070470000F0B5026AA9
:1028000022F001020262036A42688469124E24F0D7
:1028100073050C682C4323F002058B682B430D4D88
:10282000A84201D0B04205D123F00807CB683B4352
:1028300023F00403A84201D0B04205D14D6922F42F
:10284000407215438A692A43426084614968416342
:102850000362F0BD0000014000040140F0B5026ACF
:1028600022F010020262026A436884690D6824F44F
:10287000E64444EA05248D6822F0200242EA05126B
:102880000F4D104EA84201D0B04206D1CF6822F0C1
:10289000800242EA071222F04002A84201D0B04270
:1028A00007D14D6923F4406343EA85038D6943EA08
:1028B000850343608461496881630262F0BD000062
:1028C0000000014000040140F0B5026A22F4807269
:1028D0000262026A4368C46922F4007224F073053C
:1028E0000C68124E2C438D6842EA05220E4DA84218
:1028F00001D0B04206D1CF6822F4006242EA07223A
:1029000022F48062A84201D0B04207D14D6923F47D
:10291000405343EA05138D6943EA05134360C461DC
:102920004968C1630262F0BD00000140000401403B
:1029300030B5026A22F480520262046A4268C369B6
:102940000D6823F4E64343EA05238D6824F400541C
:1029500044EA0534084DA84202D0084DA84204D1EB
:102960004D6922F4804242EA85124260C36149689F
:102970000164046230BD0000000001400004014019
:1029800010B5036A046A24F001040462846924F027
:10299000F00444EA021423F00A020A43846102624A
:1029A00010BD10B5036A23F0100303628369046A43
:1029B00023F4704343EA023224F0A00343EA0111F6
:1029C0008261016210BD000070B5044600680169B3
:1029D000E26821F44051114301612169A068E26974
:1029E00008436169114308432168CA6849F20C63CE
:1029F0009A430243CA6020684169A26921F4407188
:102A00001143416131492068884202D030498842EF
:102A100002D1FEF7A3F901E0FEF790F9E269002385
:102A2000192164253226B2F5004F626828D0A0FB38
:102A30000101930F9200FDF717FC0146B0FBF5F082
:102A40006FF01802504301EB800006EB0010B0FB62
:102A5000F5F000F0F002B1FBF5F002EB0012B1FB73
:102A6000F5F06FF01803584301EB800006EB0010FF
:102A7000B0FBF5F000F00F0021681044886070BDD5
:102A8000A0FB010192185B41FDF7EEFB0146B0FB94
:102A9000F5F00201B1FBF5F06FF01803584301EBBC
:102AA000800006EBC000B0FBF5F000F0F80002EB90
:102AB0004002B1FBF5F0584301EB800006EBC0008B
:102AC000B0FBF5F000F00700D6E700000010014071
:102AD00000140140FEE701460020FFF7CBB9014694
:102AE0004020FFF7C7B90907090E002804DB00F1F1
:102AF000E02080F80014704700F00F0000F1E020A3
:102B000080F8141D70470000FDF7ECFFFFF78EFD05
:102B1000FFF7C2F9FFF74EFAFFF7C8FAFFF732FBEB
:102B2000FFF728FAFFF750FBFFF7F8FAFFF76AFB09
:102B3000FFF7ACFBFFF78BFB0021012311A2084636
:102B4000FFF756FC012314A204213220FFF750FCAA
:102B5000134C144E41F288354FF480674FF480587F
:102B600020684563206885632068C5630022394674
:102B70003046FDF76FFD012241463046FDF76AFD04
:102B8000EEE70000526F746174696F6E616C2053E0
:102B9000706565643A0000007261642F7300000084
:102BA0006C000020001002400246012000E050436B
:102BB000491EC9B2FBD2704721F00042A2F1605217
:102BC000B2F5801F01F0004328BFD2F17F6C0BD912
:102BD0005FEA001C43EAC20242EB507018BF704724
:102BE00028BF20F001007047B2F5801FBCBF184617
:102BF00070474FEA410C1CF5001F02D2084600F056
:102C00002FBA70B500F062F900000089FFF7F6BF37
:102C10004FF00040A0F58000704700002DE9C04152
:102C200030B4DFF8A0C23CEA111418BF3CEA131418
:102C300000F0EC8081EA03051CEA111444EAD57423
:102C400018BF1CEA131500F0C780A4EB05044FF071
:102C5000004545EAC12145EAC32341EA505143EA10
:102C6000525304F17F74994204F500344FEAC020B6
:102C70004FEAC22208BF904200F09C804FEA1365E1
:102C80000FF24016765D4FEA134506FB05F7C7F1D4
:102C9000807706FB07F74FEAD737A7FB0368764232
:102CA000C8F58038A7FB06CE38BFA8F1010807FB9E
:102CB00008E64FF0000EA6FB028CE6FB03CEDCF12B
:102CC000000CCEF1004E38BFAEF1010EA6FB0C5841
:102CD0004FF000074FF00005E6FB0E87A1FB08C68A
:102CE000A0FB07CE16EB0E0645F10005E1FB0765DC
:102CF00015F1E04E7EBFA4F580345FEA46066D41D3
:102D000016F1800745F100054FEA17274FEA0666DE
:102D100047EA0567A6F1DE46B6F1805F4FEA152562
:102D20001FD9384624F0010C05EBC471BCF1FE6FCD
:102D300001EB0C1102D8F0BCBDE8008124425CBF5D
:102D400001F5801E9EEAC47F02D4F0BCBDE800817C
:102D5000244238D4F0BCA1F1C041BDE8004100F0EC
:102D600003B94FEAD22242EA43524FEAD323A7FBE8
:102D700002864FEAD02040EA415007FB03661EEA74
:102D80000E0F4FEAD12105FB026658BFA6EB005695
:102D9000B6EB00564FEA520E4EEAC37E18EB0E0E0B
:102DA00056EB530EBDD518EB02085E417F1C55F162
:102DB0000005B6E74FF480154FF000074FF000060E
:102DC0004FF00008ADE7F0BC4FF0000001F1C0414A
:102DD00001F00041BDE8008111EA0C1F0CEA131557
:102DE00000D00CE013EA0C1F00F025804FF000002B
:102DF000F0BC81EA030101F00041BDE80081F0BCB4
:102E0000BDE8004181EA030100F0AEB8F0BCBDE8C6
:102E1000004170B500F05AF8097EFC3E00F007B89A
:102E200081EA03014FF0000001F00041704781EAA0
:102E3000030100F099B8F0BCBDE800414FF000007C
:102E400021497047FFFDFBF9F7F5F4F2F0EEEDEBE9
:102E5000E9E8E6E4E3E1E0DEDDDBDAD8D7D5D4D398
:102E6000D1D0CFCDCCCBCAC8C7C6C5C4C2C1C0BFE4
:102E7000BEBDBCBBBAB9B8B7B6B5B4B3B2B1B0AFEA
:102E8000AEADACABAAA9A8A8A7A6A5A4A3A3A2A1CE
:102E9000A09F9F9E9D9C9C9B9A9999989797969589
:102EA00095949393929191908F8F8E8E8D8C8C8B25
:102EB0008B8A8989888887878685858484838382AD
:102EC000828181800000FF070000F87F0EF1020E72
:102ED0002EF0030E5EF8046B364205D4012A43EB54
:102EE000030515F5001F12D8012841EB010C1CF554
:102EF000001F0CD80ED14FEAD17C15F5001F0CEB4A
:102F00004C0C0CF1020C08BF4CEBD37C04E04FF0EE
:102F1000080C01E04FEAD37C0CEB4C0526FA05F6D1
:102F200006F00706B6F1040C06D20EEB860CBDE8DF
:102F300070404CF0010C6047DFE80CF0090B020216
:102F40004FF000414FF00000A1F5002170BD19467F
:102F50001046012851EB010418BFD4F5001484BFBA
:102F6000002001F0004170BD0808A0F500114FEAF3
:102F70003101704743004FEAD30C4FEA3C0C434009
:102F80001FBF40070CF1605113F0FE4F70471CF05B
:102F9000006F03D100200CF0004170470CF000439B
:102FA00043EA507010B540EACC0000F00EF800BFC4
:102FB000000000924FEA0001FFF7D6BF4FF000413A
:102FC0004FF00000A1F5002170470EF1020E2EF027
:102FD000030E5EF8044B244204D44FEA4102B2F1DE
:102FE0007F4F11D84FEA4003B3F17F4F0CD80ED179
:102FF0004FEAD07CB2F17F4F0CEB4C0C0CF1020C81
:1030000008BF4CEBD17C04E04FF0080C01E04FEA24
:10301000D17C0CEB4C0324FA03F404F00704B4F164
:10302000040C06D20EEB840CBDE810404CF0010CF1
:103030006047DFE80CF0070802024FF00040A0F5FF
:10304000800010BD0846420018BFD2F1807288BFD0
:1030500000F0004010BD4FF04070E1EE100A7047E4
:10306000FF2141EAD050C005704700000000000079
:103070000000002F000000000700070000147F146C
:103080007F1400242A7F2A1200626408132300366A
:103090004955225000000503000000001C22410099
:1030A000000041221C000014083E08140008083EDD
:1030B0000808000000A060000008080808080000D8
:1030C00060600000002010080402003E5149453EA7
:1030D0000000427F400000426151494600214145C5
:1030E0004B31001814127F10002745454539003C2C
:1030F0004A494930000171090503003649494936FA
:1031000000064949291E00003636000000005636E8
:1031100000000008142241000014141414140000CC
:103120004122140800020151090600324959513E5A
:10313000007C1211127C007F49494936003E414112
:103140004122007F4141221C007F49494941007FC3
:1031500009090901003E4149497A007F0808087FB2
:103160000000417F4100002040413F01007F0814E2
:103170002241007F40404040007F020C027F007FE0
:103180000408107F003E4141413E007F09090906C5
:10319000003E4151215E007F0919294600464949F8
:1031A00049310001017F0101003F4040403F001FC5
:1031B0002040201F003F4038403F00631408146344
:1031C00000070870080700615149454300007F412E
:1031D000410000552A552A55000041417F00000456
:1031E000020102040040404040400000010204008F
:1031F000002054545478007F4844443800384444F4
:10320000442000384444487F00385454541800087F
:103210007E0901020018A4A4A47C007F080404789D
:103220000000447D4000004080847D00007F102825
:1032300044000000417F4000007C04180478007CBA
:103240000804047800384444443800FC242424183A
:103250000018242418FC007C080404080048545476
:10326000542000043F444020003C4040207C001C8F
:103270002040201C003C4030403C004428102844A2
:10328000001CA0A0A07C004464544C4414141414EA
:103290001414000000000000000000000000000006
:1032A0000000000000F800000000000000333000C3
:1032B000000000100C06100C0600000000000000CA
:1032C000000040C07840C0784000043F04043F0440
:1032D0000400007088FC08300000001820FF211E48
:1032E0000000F008F000E018000000211C031E217F
:1032F0001E0000F00888700000001E2123241927FA
:10330000211010160E000000000000000000000058
:103310000000000000E01804020000000007182070
:10332000400000020418E0000000004020180700E0
:103330000000404080F0804040000202010F010286
:103340000200000000F0000000000101011F010167
:103350000100000000000000000080B070000000CC
:103360000000000000000000000000010101010158
:1033700001010000000000000000003030000000EB
:1033800000000000000080601804006018060100C2
:10339000000000E010080810E000000F10202010CE
:1033A0000F00001010F8000000000020203F202037
:1033B00000000070080808887000003028242221CE
:1033C0003000003008888848300000182020201184
:1033D0000E000000C02010F8000000070424243F65
:1033E000240000F80888880808000019212020110E
:1033F0000E0000E0108888180000000F1120201136
:103400000E0000380808C83808000000003F00001F
:1034100000000070880808887000001C222121220A
:103420001C0000E010080810E0000000312222110A
:103430000F00000000C0C00000000000003030009D
:10344000000000000080000000000000806000001C
:103450000000000080402010080000010204081055
:103460002000404040404040400004040404040464
:103470000400000810204080000000201008040212
:103480000100007048080808F00000000030360114
:103490000000C030C828E810E000071827242314D3
:1034A0000B000000C038E0000000203C230202278F
:1034B000382008F8888888700000203F20202011DC
:1034C0000E00C03008080808380007182020201017
:1034D000080008F808080810E000203F202020100D
:1034E0000F0008F88888E8081000203F20202320DB
:1034F000180008F88888E8081000203F2000030022
:103500000000C03008080838000007182020221EDC
:10351000020008F808000008F808203F21010121F6
:103520003F20000808F8080800000020203F202065
:10353000000000000808F8080800C08080807F00B4
:10354000000008F888C028180800203F200126380D
:10355000200008F8080000000000203F2020202064
:10356000300008F8F800F8F80800203F003F003F5E
:10357000200008F830C00008F808203F2000071895
:103580003F00E01008080810E0000F102020201075
:103590000F0008F808080808F000203F2101010189
:1035A0000000E01008080810E0000F18242438502C
:1035B0004F0008F8888888887000203F2000030C9E
:1035C00030200070880808083800003820212122A7
:1035D0001C00180808F8080818000000203F200008
:1035E000000008F808000008F808001F202020202C
:1035F0001F000878880000C83808000007380E014E
:103600000000F80800F80008F800033C0700073C39
:103610000300081868808068180820302C03032CE9
:1036200030200838C800C83808000000203F2000BB
:10363000000010080808C83808002038262120207B
:103640001800000000FE020202000000007F40405F
:103650004000000C30C000000000000000010638EF
:10366000C00000020202FE000000004040407F0057
:10367000000000000402020204000000000000003C
:10368000000000000000000000008080808080803A
:103690008080000202040000000000000000000022
:1036A0000000000080808080000000192422222277
:1036B0003F2008F8008080000000003F112020110A
:1036C0000E000000008080800000000E11202020ED
:1036D0001100000000808088F800000E11202010EA
:1036E0003F200000808080800000001F22222222D4
:1036F0001300008080F0888888180020203F202058
:1037000000000000808080808000006B949494937F
:10371000600008F8008080800000203F2100002029
:103720003F2000809898000000000020203F2020CB
:103730000000000000809898000000C08080807F1A
:10374000000008F8000080808000203F24022D3017
:103750002000000808F8000000000020203F202082
:1037600000008080808080808000203F20003F20FB
:10377000003F8080008080800000203F21000020EA
:103780003F200000808080800000001F202020203B
:103790001F00808000808000000080FFA120201199
:1037A0000E000000008080808000000E112020A00C
:1037B000FF80808080008080800020203F212000CA
:1037C00001000000808080808000003324242424B5
:1037D0001900008080E0808000000000001F202091
:1037E00000008080000000808000001F202020104A
:1037F0003F20808080000080808000010E3008061D
:10380000010080800080008080800F300C030C302D
:103810000F0000808000808080000020312E0E315B
:103820002000808080000080808080818E7018065B
:10383000010000808080808080000021302C2221C7
:10384000300000000000807C020200000000003F09
:10385000404000000000FF00000000000000FF00EA
:1038600000000002027C800000000040403F000099
:103870000000000601010202040400000000000034
:103880000000000000000000000001020304060721
:10389000080900000000010203040000BC38000811
:1038A0000000002018000000C4010008D4380008FF
:1038B0001800002018080000E001000800000000C7
:1038C00000000000010000001000000000000000E7
:0438D0000024F400DC
:040000050800018965
:00000001FF
